{
  "_format": "hh-sol-artifact-1",
  "contractName": "ItemNFT",
  "sourceName": "contracts/ItemNFT.sol",
  "abi": [
    {
      "inputs": [],
      "stateMutability": "nonpayable",
      "type": "constructor"
    },
    {
      "inputs": [],
      "name": "AccessControlBadConfirmation",
      "type": "error"
    },
    {
      "inputs": [
        {
          "internalType": "address",
          "name": "account",
          "type": "address"
        },
        {
          "internalType": "bytes32",
          "name": "neededRole",
          "type": "bytes32"
        }
      ],
      "name": "AccessControlUnauthorizedAccount",
      "type": "error"
    },
    {
      "inputs": [
        {
          "internalType": "address",
          "name": "target",
          "type": "address"
        }
      ],
      "name": "AddressEmptyCode",
      "type": "error"
    },
    {
      "inputs": [
        {
          "internalType": "address",
          "name": "implementation",
          "type": "address"
        }
      ],
      "name": "ERC1967InvalidImplementation",
      "type": "error"
    },
    {
      "inputs": [],
      "name": "ERC1967NonPayable",
      "type": "error"
    },
    {
      "inputs": [
        {
          "internalType": "address",
          "name": "sender",
          "type": "address"
        },
        {
          "internalType": "uint256",
          "name": "tokenId",
          "type": "uint256"
        },
        {
          "internalType": "address",
          "name": "owner",
          "type": "address"
        }
      ],
      "name": "ERC721IncorrectOwner",
      "type": "error"
    },
    {
      "inputs": [
        {
          "internalType": "address",
          "name": "operator",
          "type": "address"
        },
        {
          "internalType": "uint256",
          "name": "tokenId",
          "type": "uint256"
        }
      ],
      "name": "ERC721InsufficientApproval",
      "type": "error"
    },
    {
      "inputs": [
        {
          "internalType": "address",
          "name": "approver",
          "type": "address"
        }
      ],
      "name": "ERC721InvalidApprover",
      "type": "error"
    },
    {
      "inputs": [
        {
          "internalType": "address",
          "name": "operator",
          "type": "address"
        }
      ],
      "name": "ERC721InvalidOperator",
      "type": "error"
    },
    {
      "inputs": [
        {
          "internalType": "address",
          "name": "owner",
          "type": "address"
        }
      ],
      "name": "ERC721InvalidOwner",
      "type": "error"
    },
    {
      "inputs": [
        {
          "internalType": "address",
          "name": "receiver",
          "type": "address"
        }
      ],
      "name": "ERC721InvalidReceiver",
      "type": "error"
    },
    {
      "inputs": [
        {
          "internalType": "address",
          "name": "sender",
          "type": "address"
        }
      ],
      "name": "ERC721InvalidSender",
      "type": "error"
    },
    {
      "inputs": [
        {
          "internalType": "uint256",
          "name": "tokenId",
          "type": "uint256"
        }
      ],
      "name": "ERC721NonexistentToken",
      "type": "error"
    },
    {
      "inputs": [],
      "name": "FailedCall",
      "type": "error"
    },
    {
      "inputs": [],
      "name": "InvalidInitialization",
      "type": "error"
    },
    {
      "inputs": [],
      "name": "InvalidRecipient",
      "type": "error"
    },
    {
      "inputs": [
        {
          "internalType": "enum NFTState",
          "name": "current",
          "type": "uint8"
        },
        {
          "internalType": "enum NFTState",
          "name": "required",
          "type": "uint8"
        }
      ],
      "name": "InvalidStateTransition",
      "type": "error"
    },
    {
      "inputs": [],
      "name": "NotInitializing",
      "type": "error"
    },
    {
      "inputs": [],
      "name": "UUPSUnauthorizedCallContext",
      "type": "error"
    },
    {
      "inputs": [
        {
          "internalType": "bytes32",
          "name": "slot",
          "type": "bytes32"
        }
      ],
      "name": "UUPSUnsupportedProxiableUUID",
      "type": "error"
    },
    {
      "anonymous": false,
      "inputs": [
        {
          "indexed": true,
          "internalType": "address",
          "name": "owner",
          "type": "address"
        },
        {
          "indexed": true,
          "internalType": "address",
          "name": "approved",
          "type": "address"
        },
        {
          "indexed": true,
          "internalType": "uint256",
          "name": "tokenId",
          "type": "uint256"
        }
      ],
      "name": "Approval",
      "type": "event"
    },
    {
      "anonymous": false,
      "inputs": [
        {
          "indexed": true,
          "internalType": "address",
          "name": "owner",
          "type": "address"
        },
        {
          "indexed": true,
          "internalType": "address",
          "name": "operator",
          "type": "address"
        },
        {
          "indexed": false,
          "internalType": "bool",
          "name": "approved",
          "type": "bool"
        }
      ],
      "name": "ApprovalForAll",
      "type": "event"
    },
    {
      "anonymous": false,
      "inputs": [
        {
          "indexed": false,
          "internalType": "uint256",
          "name": "_fromTokenId",
          "type": "uint256"
        },
        {
          "indexed": false,
          "internalType": "uint256",
          "name": "_toTokenId",
          "type": "uint256"
        }
      ],
      "name": "BatchMetadataUpdate",
      "type": "event"
    },
    {
      "anonymous": false,
      "inputs": [
        {
          "indexed": false,
          "internalType": "uint64",
          "name": "version",
          "type": "uint64"
        }
      ],
      "name": "Initialized",
      "type": "event"
    },
    {
      "anonymous": false,
      "inputs": [
        {
          "indexed": true,
          "internalType": "uint256",
          "name": "tokenId",
          "type": "uint256"
        }
      ],
      "name": "ItemBurned",
      "type": "event"
    },
    {
      "anonymous": false,
      "inputs": [
        {
          "indexed": true,
          "internalType": "uint256",
          "name": "tokenId",
          "type": "uint256"
        },
        {
          "indexed": true,
          "internalType": "address",
          "name": "seller",
          "type": "address"
        },
        {
          "indexed": true,
          "internalType": "uint256",
          "name": "listingId",
          "type": "uint256"
        }
      ],
      "name": "ItemMinted",
      "type": "event"
    },
    {
      "anonymous": false,
      "inputs": [
        {
          "indexed": true,
          "internalType": "uint256",
          "name": "tokenId",
          "type": "uint256"
        },
        {
          "indexed": true,
          "internalType": "address",
          "name": "from",
          "type": "address"
        },
        {
          "indexed": true,
          "internalType": "address",
          "name": "to",
          "type": "address"
        }
      ],
      "name": "ItemSold",
      "type": "event"
    },
    {
      "anonymous": false,
      "inputs": [
        {
          "indexed": false,
          "internalType": "uint256",
          "name": "_tokenId",
          "type": "uint256"
        }
      ],
      "name": "MetadataUpdate",
      "type": "event"
    },
    {
      "anonymous": false,
      "inputs": [
        {
          "indexed": true,
          "internalType": "bytes32",
          "name": "role",
          "type": "bytes32"
        },
        {
          "indexed": true,
          "internalType": "bytes32",
          "name": "previousAdminRole",
          "type": "bytes32"
        },
        {
          "indexed": true,
          "internalType": "bytes32",
          "name": "newAdminRole",
          "type": "bytes32"
        }
      ],
      "name": "RoleAdminChanged",
      "type": "event"
    },
    {
      "anonymous": false,
      "inputs": [
        {
          "indexed": true,
          "internalType": "bytes32",
          "name": "role",
          "type": "bytes32"
        },
        {
          "indexed": true,
          "internalType": "address",
          "name": "account",
          "type": "address"
        },
        {
          "indexed": true,
          "internalType": "address",
          "name": "sender",
          "type": "address"
        }
      ],
      "name": "RoleGranted",
      "type": "event"
    },
    {
      "anonymous": false,
      "inputs": [
        {
          "indexed": true,
          "internalType": "bytes32",
          "name": "role",
          "type": "bytes32"
        },
        {
          "indexed": true,
          "internalType": "address",
          "name": "account",
          "type": "address"
        },
        {
          "indexed": true,
          "internalType": "address",
          "name": "sender",
          "type": "address"
        }
      ],
      "name": "RoleRevoked",
      "type": "event"
    },
    {
      "anonymous": false,
      "inputs": [
        {
          "indexed": true,
          "internalType": "address",
          "name": "from",
          "type": "address"
        },
        {
          "indexed": true,
          "internalType": "address",
          "name": "to",
          "type": "address"
        },
        {
          "indexed": true,
          "internalType": "uint256",
          "name": "tokenId",
          "type": "uint256"
        }
      ],
      "name": "Transfer",
      "type": "event"
    },
    {
      "anonymous": false,
      "inputs": [
        {
          "indexed": true,
          "internalType": "address",
          "name": "implementation",
          "type": "address"
        }
      ],
      "name": "Upgraded",
      "type": "event"
    },
    {
      "inputs": [],
      "name": "DEFAULT_ADMIN_ROLE",
      "outputs": [
        {
          "internalType": "bytes32",
          "name": "",
          "type": "bytes32"
        }
      ],
      "stateMutability": "view",
      "type": "function"
    },
    {
      "inputs": [],
      "name": "MARKET_ROLE",
      "outputs": [
        {
          "internalType": "bytes32",
          "name": "",
          "type": "bytes32"
        }
      ],
      "stateMutability": "view",
      "type": "function"
    },
    {
      "inputs": [],
      "name": "UPGRADE_INTERFACE_VERSION",
      "outputs": [
        {
          "internalType": "string",
          "name": "",
          "type": "string"
        }
      ],
      "stateMutability": "view",
      "type": "function"
    },
    {
      "inputs": [
        {
          "internalType": "address",
          "name": "to",
          "type": "address"
        },
        {
          "internalType": "uint256",
          "name": "tokenId",
          "type": "uint256"
        }
      ],
      "name": "approve",
      "outputs": [],
      "stateMutability": "nonpayable",
      "type": "function"
    },
    {
      "inputs": [
        {
          "internalType": "address",
          "name": "owner",
          "type": "address"
        }
      ],
      "name": "balanceOf",
      "outputs": [
        {
          "internalType": "uint256",
          "name": "",
          "type": "uint256"
        }
      ],
      "stateMutability": "view",
      "type": "function"
    },
    {
      "inputs": [
        {
          "internalType": "uint256",
          "name": "tokenId",
          "type": "uint256"
        }
      ],
      "name": "burnItem",
      "outputs": [],
      "stateMutability": "nonpayable",
      "type": "function"
    },
    {
      "inputs": [
        {
          "internalType": "uint256",
          "name": "tokenId",
          "type": "uint256"
        }
      ],
      "name": "getApproved",
      "outputs": [
        {
          "internalType": "address",
          "name": "",
          "type": "address"
        }
      ],
      "stateMutability": "view",
      "type": "function"
    },
    {
      "inputs": [
        {
          "internalType": "bytes32",
          "name": "role",
          "type": "bytes32"
        }
      ],
      "name": "getRoleAdmin",
      "outputs": [
        {
          "internalType": "bytes32",
          "name": "",
          "type": "bytes32"
        }
      ],
      "stateMutability": "view",
      "type": "function"
    },
    {
      "inputs": [
        {
          "internalType": "bytes32",
          "name": "role",
          "type": "bytes32"
        },
        {
          "internalType": "address",
          "name": "account",
          "type": "address"
        }
      ],
      "name": "grantRole",
      "outputs": [],
      "stateMutability": "nonpayable",
      "type": "function"
    },
    {
      "inputs": [
        {
          "internalType": "bytes32",
          "name": "role",
          "type": "bytes32"
        },
        {
          "internalType": "address",
          "name": "account",
          "type": "address"
        }
      ],
      "name": "hasRole",
      "outputs": [
        {
          "internalType": "bool",
          "name": "",
          "type": "bool"
        }
      ],
      "stateMutability": "view",
      "type": "function"
    },
    {
      "inputs": [
        {
          "internalType": "address",
          "name": "admin",
          "type": "address"
        }
      ],
      "name": "initialize",
      "outputs": [],
      "stateMutability": "nonpayable",
      "type": "function"
    },
    {
      "inputs": [
        {
          "internalType": "address",
          "name": "owner",
          "type": "address"
        },
        {
          "internalType": "address",
          "name": "operator",
          "type": "address"
        }
      ],
      "name": "isApprovedForAll",
      "outputs": [
        {
          "internalType": "bool",
          "name": "",
          "type": "bool"
        }
      ],
      "stateMutability": "view",
      "type": "function"
    },
    {
      "inputs": [
        {
          "internalType": "uint256",
          "name": "tokenId",
          "type": "uint256"
        },
        {
          "internalType": "address",
          "name": "to",
          "type": "address"
        }
      ],
      "name": "marketTransfer",
      "outputs": [],
      "stateMutability": "nonpayable",
      "type": "function"
    },
    {
      "inputs": [
        {
          "internalType": "address",
          "name": "seller",
          "type": "address"
        },
        {
          "internalType": "string",
          "name": "uri",
          "type": "string"
        },
        {
          "internalType": "uint256",
          "name": "listingId",
          "type": "uint256"
        }
      ],
      "name": "mint",
      "outputs": [
        {
          "internalType": "uint256",
          "name": "tokenId",
          "type": "uint256"
        }
      ],
      "stateMutability": "nonpayable",
      "type": "function"
    },
    {
      "inputs": [],
      "name": "name",
      "outputs": [
        {
          "internalType": "string",
          "name": "",
          "type": "string"
        }
      ],
      "stateMutability": "view",
      "type": "function"
    },
    {
      "inputs": [
        {
          "internalType": "uint256",
          "name": "tokenId",
          "type": "uint256"
        }
      ],
      "name": "ownerOf",
      "outputs": [
        {
          "internalType": "address",
          "name": "",
          "type": "address"
        }
      ],
      "stateMutability": "view",
      "type": "function"
    },
    {
      "inputs": [],
      "name": "proxiableUUID",
      "outputs": [
        {
          "internalType": "bytes32",
          "name": "",
          "type": "bytes32"
        }
      ],
      "stateMutability": "view",
      "type": "function"
    },
    {
      "inputs": [
        {
          "internalType": "bytes32",
          "name": "role",
          "type": "bytes32"
        },
        {
          "internalType": "address",
          "name": "callerConfirmation",
          "type": "address"
        }
      ],
      "name": "renounceRole",
      "outputs": [],
      "stateMutability": "nonpayable",
      "type": "function"
    },
    {
      "inputs": [
        {
          "internalType": "bytes32",
          "name": "role",
          "type": "bytes32"
        },
        {
          "internalType": "address",
          "name": "account",
          "type": "address"
        }
      ],
      "name": "revokeRole",
      "outputs": [],
      "stateMutability": "nonpayable",
      "type": "function"
    },
    {
      "inputs": [
        {
          "internalType": "address",
          "name": "from",
          "type": "address"
        },
        {
          "internalType": "address",
          "name": "to",
          "type": "address"
        },
        {
          "internalType": "uint256",
          "name": "tokenId",
          "type": "uint256"
        }
      ],
      "name": "safeTransferFrom",
      "outputs": [],
      "stateMutability": "nonpayable",
      "type": "function"
    },
    {
      "inputs": [
        {
          "internalType": "address",
          "name": "from",
          "type": "address"
        },
        {
          "internalType": "address",
          "name": "to",
          "type": "address"
        },
        {
          "internalType": "uint256",
          "name": "tokenId",
          "type": "uint256"
        },
        {
          "internalType": "bytes",
          "name": "data",
          "type": "bytes"
        }
      ],
      "name": "safeTransferFrom",
      "outputs": [],
      "stateMutability": "nonpayable",
      "type": "function"
    },
    {
      "inputs": [
        {
          "internalType": "address",
          "name": "operator",
          "type": "address"
        },
        {
          "internalType": "bool",
          "name": "approved",
          "type": "bool"
        }
      ],
      "name": "setApprovalForAll",
      "outputs": [],
      "stateMutability": "nonpayable",
      "type": "function"
    },
    {
      "inputs": [
        {
          "internalType": "bytes4",
          "name": "interfaceId",
          "type": "bytes4"
        }
      ],
      "name": "supportsInterface",
      "outputs": [
        {
          "internalType": "bool",
          "name": "",
          "type": "bool"
        }
      ],
      "stateMutability": "view",
      "type": "function"
    },
    {
      "inputs": [],
      "name": "symbol",
      "outputs": [
        {
          "internalType": "string",
          "name": "",
          "type": "string"
        }
      ],
      "stateMutability": "view",
      "type": "function"
    },
    {
      "inputs": [
        {
          "internalType": "uint256",
          "name": "",
          "type": "uint256"
        }
      ],
      "name": "tokenListingId",
      "outputs": [
        {
          "internalType": "uint256",
          "name": "",
          "type": "uint256"
        }
      ],
      "stateMutability": "view",
      "type": "function"
    },
    {
      "inputs": [
        {
          "internalType": "uint256",
          "name": "",
          "type": "uint256"
        }
      ],
      "name": "tokenState",
      "outputs": [
        {
          "internalType": "enum NFTState",
          "name": "",
          "type": "uint8"
        }
      ],
      "stateMutability": "view",
      "type": "function"
    },
    {
      "inputs": [
        {
          "internalType": "uint256",
          "name": "tokenId",
          "type": "uint256"
        }
      ],
      "name": "tokenURI",
      "outputs": [
        {
          "internalType": "string",
          "name": "",
          "type": "string"
        }
      ],
      "stateMutability": "view",
      "type": "function"
    },
    {
      "inputs": [
        {
          "internalType": "address",
          "name": "from",
          "type": "address"
        },
        {
          "internalType": "address",
          "name": "to",
          "type": "address"
        },
        {
          "internalType": "uint256",
          "name": "tokenId",
          "type": "uint256"
        }
      ],
      "name": "transferFrom",
      "outputs": [],
      "stateMutability": "nonpayable",
      "type": "function"
    },
    {
      "inputs": [
        {
          "internalType": "address",
          "name": "newImplementation",
          "type": "address"
        },
        {
          "internalType": "bytes",
          "name": "data",
          "type": "bytes"
        }
      ],
      "name": "upgradeToAndCall",
      "outputs": [],
      "stateMutability": "payable",
      "type": "function"
    }
  ],
  "bytecode": "0x60a080604052346100c257306080525f5160206122fc5f395f51905f525460ff8160401c166100b3576002600160401b03196001600160401b03821601610060575b60405161223590816100c78239608051818181610f340152610fc70152f35b6001600160401b0319166001600160401b039081175f5160206122fc5f395f51905f525581527fc7f505b2f371ae2175ee4913f4499e1f2633a7b5936321eed1cdaeb6115181d290602090a15f80610041565b63f92ee8a960e01b5f5260045ffd5b5f80fdfe6080806040526004361015610012575f80fd5b5f3560e01c90816301ffc9a7146115f05750806302541897146114b457806306fdde031461140a578063081812fc146113c1578063095ea7b3146112d557806323b872dd146112be578063248a9ca31461127f5780632f2ff15d1461123557806336568abe146111f15780633e27ec9b146111b757806342842e0e146111885780634f1ef28614610f8857806352d1902d14610f22578063576cc0f714610e285780636352211e14610df857806370a0823114610da957806391d1485414610d5457806395d89b4114610c725780639745cc3d14610c28578063a217fddf14610c0e578063a22cb46514610b5d578063ad3cb1cc14610b16578063b88d4fde14610abb578063ba7aef43146106fe578063bf84f13f146106d4578063c4d66de814610233578063c87b56dd146101fc578063d547741f146101ab5763e985e9c51461015b575f80fd5b346101a75760403660031901126101a7576101746116a5565b61018561017f61168f565b916119b6565b9060018060a01b03165f52602052602060ff60405f2054166040519015158152f35b5f80fd5b346101a75760403660031901126101a7576101fa6004356101ca61168f565b906101f56101f0825f525f5160206121405f395f51905f52602052600160405f20015490565b611a5d565b611cc4565b005b346101a75760203660031901126101a75761022f61021b600435611e96565b6040519182916020835260208301906116bb565b0390f35b346101a75760203660031901126101a75761024c6116a5565b5f5160206121a05f395f51905f525460ff8160401c16159067ffffffffffffffff8116801590816106cc575b60011490816106c2575b1590816106b9575b506106aa5767ffffffffffffffff1981166001175f5160206121a05f395f51905f52558161067e575b506040908151926102c48385611719565b601084526f54727573744d61726b6574204974656d60801b60208501528251936102ee8486611719565b6006855265544d4954454d60d01b6020860152610309612048565b610311612048565b80519067ffffffffffffffff821161055857819061033c5f5160206121005f395f51905f52546117ab565b601f8111610600575b50602090601f8311600114610577575f9261056c575b50508160011b915f199060031b1c1916175f5160206121005f395f51905f52555b835167ffffffffffffffff8111610558576103a45f5160206121c05f395f51905f52546117ab565b601f81116104e9575b506020601f82116001146104685781906104009495965f9261045d575b50508160011b915f199060031b1c1916175f5160206121c05f395f51905f52555b6103f3612048565b6103fb612048565b611b71565b5061040757005b60207fc7f505b2f371ae2175ee4913f4499e1f2633a7b5936321eed1cdaeb6115181d29168ff0000000000000000195f5160206121a05f395f51905f5254165f5160206121a05f395f51905f52555160018152a1005b0151905086806103ca565b601f198216955f5160206121c05f395f51905f525f52815f20965f5b8181106104d1575091610400959697918460019594106104b9575b505050811b015f5160206121c05f395f51905f52556103eb565b01515f1960f88460031b161c1916905586808061049f565b83830151895560019098019760209384019301610484565b5f5160206121c05f395f51905f525f527ff4bad0a69248f59680a4f2b3000328cec71a413447c96781cfe5996daa8c456e601f830160051c8101916020841061054e575b601f0160051c01905b81811061054357506103ad565b5f8155600101610536565b909150819061052d565b634e487b7160e01b5f52604160045260245ffd5b01519050868061035b565b5f5160206121005f395f51905f525f9081525f5160206121e05f395f51905f529350601f198516905b8181106105e857509084600195949392106105d0575b505050811b015f5160206121005f395f51905f525561037c565b01515f1960f88460031b161c191690558680806105b6565b929360206001819287860151815501950193016105a0565b9091505f5160206121005f395f51905f525f52601f830160051c5f5160206121e05f395f51905f52019060208410610669575b90601f8493920160051c5f5160206121e05f395f51905f5201905b81811061065b5750610345565b5f815584935060010161064e565b5f5160206121e05f395f51905f529150610633565b68ffffffffffffffffff191668010000000000000001175f5160206121a05f395f51905f5255826102b3565b63f92ee8a960e01b5f5260045ffd5b9050158461028a565b303b159150610282565b839150610278565b346101a75760203660031901126101a7576004355f526002602052602060405f2054604051908152f35b346101a75760603660031901126101a7576107176116a5565b6024359067ffffffffffffffff82116101a757366023830112156101a75781600401359167ffffffffffffffff83116101a75736602484830101116101a7576044356107616119ee565b5f54915f198314610aa757600183015f55602094604051946107838787611719565b5f86526001600160a01b038116958615610a94576001600160a01b036107a98784611ac0565b16610a815787913b610974575b5050906107c7916024369201611757565b825f527f0542a41881ee128a365a727b282c86fa859579490b9bb45aab8503648c8e7900855260405f209080519067ffffffffffffffff821161055857819061081084546117ab565b601f8111610926575b508790601f83116001146108c3575f926108b8575b50508160011b915f199060031b1c19161790555b7ff8e1a15aba9398e019f0b49df1a4fde98ee17ae345cb5f6b5e2c27f5033e8ce784604051848152a1815f526001845260405f2060ff198154169055815f52600284528060405f205560405192827f2b46b186672d6173d9d87edf470f2b923a363cd6b5a964c3a74fcb26e10907ee5f80a48152f35b01519050878061082e565b5f8581528981209350601f198516905b8a8282106109105750509084600195949392106108f8575b505050811b019055610842565b01515f1960f88460031b161c191690558780806108eb565b60018596829396860151815501950193016108d3565b909150835f52875f20601f840160051c81019189851061096a575b90601f859493920160051c01905b81811061095c5750610819565b5f815584935060010161094f565b9091508190610941565b906109ad9160405180938192630a85bd0160e11b83523360048401525f60248401528960448401526080606484015260848301906116bb565b03815f8a5af15f9181610a41575b50610a105785873d15610a08573d906109d38261173b565b916109e16040519384611719565b82523d5f8284013e5b81519182610a055783633250574960e11b5f5260045260245ffd5b01fd5b6060906109ea565b6001600160e01b03191663757a42ff60e11b01610a2e5785876107b6565b84633250574960e11b5f5260045260245ffd5b9091508781813d8311610a7a575b610a598183611719565b810103126101a757516001600160e01b0319811681036101a75790886109bb565b503d610a4f565b6339e3563760e11b5f525f60045260245ffd5b633250574960e11b5f525f60045260245ffd5b634e487b7160e01b5f52601160045260245ffd5b346101a75760803660031901126101a757610ad46116a5565b610adc61168f565b906044356064359267ffffffffffffffff84116101a757610b046101fa94369060040161178d565b92610b108383836117e3565b33611d60565b346101a7575f3660031901126101a75761022f604051610b37604082611719565b60058152640352e302e360dc1b60208201526040519182916020835260208301906116bb565b346101a75760403660031901126101a757610b766116a5565b602435908115158092036101a7573315610bfb576001600160a01b0316908115610be857610ba3336119b6565b825f5260205260405f2060ff1981541660ff83161790556040519081527f17307eab39ab6107e8899845ad3d59bd9653f200f220920489ca2b5937696c3160203392a3005b50630b61174360e31b5f5260045260245ffd5b63a9fbf51f60e01b5f525f60045260245ffd5b346101a7575f3660031901126101a75760206040515f8152f35b346101a75760203660031901126101a7576004355f52600160205260ff60405f2054166040516003821015610c5e576020918152f35b634e487b7160e01b5f52602160045260245ffd5b346101a7575f3660031901126101a7576040515f5f5160206121c05f395f51905f5254610c9e816117ab565b8084529060018116908115610d305750600114610cc6575b61022f8361021b81850382611719565b5f5160206121c05f395f51905f525f9081527ff4bad0a69248f59680a4f2b3000328cec71a413447c96781cfe5996daa8c456e939250905b808210610d165750909150810160200161021b610cb6565b919260018160209254838588010152019101909291610cfe565b60ff191660208086019190915291151560051b8401909101915061021b9050610cb6565b346101a75760403660031901126101a757610d6d61168f565b6004355f525f5160206121405f395f51905f5260205260405f209060018060a01b03165f52602052602060ff60405f2054166040519015158152f35b346101a75760203660031901126101a757610dc26116a5565b6001600160a01b03811615610de557610ddc60209161197e565b54604051908152f35b6322718ad960e21b5f525f60045260245ffd5b346101a75760203660031901126101a7576020610e16600435611aa3565b6040516001600160a01b039091168152f35b346101a75760203660031901126101a757600435610e446119ee565b805f52600160205260405f20600260ff19825416179055610e6481611ff4565b6001600160a01b0381168015919083905f908415610f04575b8282525f5160206121605f395f51905f526020526040822080546001600160a01b03191690557fddf252ad1be2c89b69c2b068fc378daa952ba7f163c4a11628f55a4df523b3ef8280a450610ef2577fc6eb113408f238574359334840f6fe1ced3001faf98cb0ae3fac7f64b5d610255f80a2005b637e27328960e01b5f5260045260245ffd5b610f0d8361201a565b610f168461197e565b82198154019055610e7d565b346101a7575f3660031901126101a7577f00000000000000000000000000000000000000000000000000000000000000006001600160a01b03163003610f795760206040515f5160206121205f395f51905f528152f35b63703e46dd60e11b5f5260045ffd5b60403660031901126101a757610f9c6116a5565b60243567ffffffffffffffff81116101a757610fbc90369060040161178d565b906001600160a01b037f000000000000000000000000000000000000000000000000000000000000000016308114908115611166575b50610f7957335f9081527fb7db2dd08fcb62d0c9e08c51941cae53c267786a0b75803fb7960902fc8ef97d602052604090205460ff161561114f576040516352d1902d60e01b81526001600160a01b0382169290602081600481875afa5f918161111b575b5061106f5783634c9c8ce360e01b5f5260045260245ffd5b805f5160206121205f395f51905f528592036111095750823b156110f7575f5160206121205f395f51905f5280546001600160a01b031916821790557fbc7cd75a20ee27fd9adebab32041f755214dbc6bffa90cc0225b39da2e5c2d3b5f80a28051156110df576101fa91612073565b5050346110e857005b63b398979f60e01b5f5260045ffd5b634c9c8ce360e01b5f5260045260245ffd5b632a87526960e21b5f5260045260245ffd5b9091506020813d602011611147575b8161113760209383611719565b810103126101a757519085611057565b3d915061112a565b63e2517d3f60e01b5f52336004525f60245260445ffd5b5f5160206121205f395f51905f52546001600160a01b03161415905083610ff2565b346101a7576101fa611199366116df565b90604051926111a9602085611719565b5f8452610b108383836117e3565b346101a7575f3660031901126101a75760206040517f395f08be531c0d7403cba7c5ffd2b57329184452bcebcd6a48299ebbbf39db6f8152f35b346101a75760403660031901126101a75761120a61168f565b336001600160a01b03821603611226576101fa90600435611cc4565b63334bd91960e11b5f5260045ffd5b346101a75760403660031901126101a7576101fa60043561125461168f565b9061127a6101f0825f525f5160206121405f395f51905f52602052600160405f20015490565b611c20565b346101a75760203660031901126101a75760206112b66004355f525f5160206121405f395f51905f52602052600160405f20015490565b604051908152f35b346101a7576101fa6112cf366116df565b916117e3565b346101a75760403660031901126101a7576112ee6116a5565b6024356112fa81611aa3565b331515806113ae575b8061138b575b6113785781906001600160a01b0384811691167f8c5be1e5ebec7d5bd14f71427d1e84f3dd0314c0f7b2291e5b200ac8c7c3b9255f80a45f9081525f5160206121805f395f51905f526020526040902080546001600160a01b0319166001600160a01b03909216919091179055005b63a9fbf51f60e01b5f523360045260245ffd5b50611395816119b6565b335f908152602091909152604090205460ff1615611309565b506001600160a01b038116331415611303565b346101a75760203660031901126101a7576020610e166004356113e381611aa3565b505f9081525f5160206121805f395f51905f5260205260409020546001600160a01b031690565b346101a7575f3660031901126101a7576040515f5f5160206121005f395f51905f5254611436816117ab565b8084529060018116908115610d30575060011461145d5761022f8361021b81850382611719565b5f5160206121005f395f51905f525f9081525f5160206121e05f395f51905f52939250905b80821061149a5750909150810160200161021b610cb6565b919260018160209254838588010152019101909291611482565b346101a75760403660031901126101a7576004356114d061168f565b906114d96119ee565b6001600160a01b0382169182156115e157815f52600160205260ff60405f2054166003811015610c5e576115b257815f52600160205260405f20600160ff1982541617905561152782611aa3565b906001600160a01b039061153c908490611ac0565b16806115555782637e27328960e01b5f5260045260245ffd5b6001600160a01b0382168082036115985750506001600160a01b0316907f509c262c7829d8d12fe92ea64aea37e87cc56029acb22965204b2c1baf9537ab5f80a4005b83906364283d7b60e01b5f5260045260245260445260645ffd5b505f52600160205260ff60405f2054166335a37e5f60e11b5f526003811015610c5e576004525f60245260445ffd5b634e46966960e11b5f5260045ffd5b346101a75760203660031901126101a7576004359063ffffffff60e01b82168092036101a757602091637965db0b60e01b8114908115611632575b5015158152f35b632483248360e11b81149150811561164c575b508361162b565b6380ac58cd60e01b81149150811561167e575b811561166d575b5083611645565b6301ffc9a760e01b14905083611666565b635b5e139f60e01b8114915061165f565b602435906001600160a01b03821682036101a757565b600435906001600160a01b03821682036101a757565b805180835260209291819084018484015e5f828201840152601f01601f1916010190565b60609060031901126101a7576004356001600160a01b03811681036101a757906024356001600160a01b03811681036101a7579060443590565b90601f8019910116810190811067ffffffffffffffff82111761055857604052565b67ffffffffffffffff811161055857601f01601f191660200190565b9291926117638261173b565b916117716040519384611719565b8294818452818301116101a7578281602093845f960137010152565b9080601f830112156101a7578160206117a893359101611757565b90565b90600182811c921680156117d9575b60208310146117c557565b634e487b7160e01b5f52602260045260245ffd5b91607f16916117ba565b9091906001600160a01b0383168015610a94578261180081611ff4565b91331515806118cb575b506001600160a01b0383169561182490876118ad5761197e565b60018154019055815f525f5160206121605f395f51905f5260205260405f20816bffffffffffffffffffffffff60a01b825416179055857fddf252ad1be2c89b69c2b068fc378daa952ba7f163c4a11628f55a4df523b3ef5f80a4506001600160a01b031680830361189557505050565b6364283d7b60e01b5f5260045260245260445260645ffd5b6118b68461201a565b6118bf8561197e565b80545f1901905561197e565b90915080611918575b156118e15783905f61180a565b836001600160a01b03831661190257637e27328960e01b5f5260045260245ffd5b63177e802f60e01b5f523360045260245260445ffd5b506001600160a01b0382163314801561195c575b806118d457505f8481525f5160206121805f395f51905f5260205260409020546001600160a01b031633146118d4565b50611966826119b6565b335f908152602091909152604090205460ff1661192c565b6001600160a01b03165f9081527f80bb2b638cc20bc4d0a60d66940f3ab4a00c1d7b313497ca82fb0b4ab00793036020526040902090565b6001600160a01b03165f9081527f80bb2b638cc20bc4d0a60d66940f3ab4a00c1d7b313497ca82fb0b4ab00793056020526040902090565b335f9081527f39d1149e996200895cc6fe4e96a7f3ec55437d11db08dc08355f549a525399b4602052604090205460ff1615611a2657565b63e2517d3f60e01b5f52336004527f395f08be531c0d7403cba7c5ffd2b57329184452bcebcd6a48299ebbbf39db6f60245260445ffd5b5f8181525f5160206121405f395f51905f526020908152604080832033845290915290205460ff1615611a8d5750565b63e2517d3f60e01b5f523360045260245260445ffd5b611aac81611ff4565b906001600160a01b03821615610ef2575090565b90611aca81611ff4565b916001600160a01b03831680611b53575b6001600160a01b0382169182611b3d575b505f8381525f5160206121605f395f51905f526020526040812080546001600160a01b031916841790557fddf252ad1be2c89b69c2b068fc378daa952ba7f163c4a11628f55a4df523b3ef9080a490565b611b469061197e565b600181540190555f611aec565b611b5c8361201a565b611b658461197e565b80545f19019055611adb565b6001600160a01b0381165f9081527fb7db2dd08fcb62d0c9e08c51941cae53c267786a0b75803fb7960902fc8ef97d602052604090205460ff16611c1b576001600160a01b03165f8181527fb7db2dd08fcb62d0c9e08c51941cae53c267786a0b75803fb7960902fc8ef97d60205260408120805460ff191660011790553391907f2f8788117e7eff1d82e926ec794901d17c78024a50270940304540a733656f0d8180a4600190565b505f90565b5f8181525f5160206121405f395f51905f52602090815260408083206001600160a01b038616845290915290205460ff16611cbe575f8181525f5160206121405f395f51905f52602090815260408083206001600160a01b0395909516808452949091528120805460ff19166001179055339291907f2f8788117e7eff1d82e926ec794901d17c78024a50270940304540a733656f0d9080a4600190565b50505f90565b5f8181525f5160206121405f395f51905f52602090815260408083206001600160a01b038616845290915290205460ff1615611cbe575f8181525f5160206121405f395f51905f52602090815260408083206001600160a01b0395909516808452949091528120805460ff19169055339291907ff6391f5c32d9c69d2a47ea670b442974b53935d1edc7fd64eb21e047a839171b9080a4600190565b823b611d6e575b5050505050565b604051630a85bd0160e11b81526001600160a01b039182166004820152918116602483015260448201939093526080606482015291169160209082908190611dba9060848301906116bb565b03815f865af15f9181611e51575b50611e1d57503d15611e16573d611dde8161173b565b90611dec6040519283611719565b81523d5f602083013e5b80519081611e115782633250574960e11b5f5260045260245ffd5b602001fd5b6060611df6565b6001600160e01b03191663757a42ff60e11b01611e3f57505f80808080611d67565b633250574960e11b5f5260045260245ffd5b9091506020813d602011611e8e575b81611e6d60209383611719565b810103126101a757516001600160e01b0319811681036101a757905f611dc8565b3d9150611e60565b611e9f81611aa3565b50602090604051611eb08382611719565b5f8152815f527f0542a41881ee128a365a727b282c86fa859579490b9bb45aab8503648c8e7900835260405f206040515f9181815493611eef856117ab565b9283835288830195896001821691825f14611fd6575050600114611f9a575b50611f1b92500382611719565b825115611f92579081859251611f5b5750505050611f3890611aa3565b505f604051611f478382611719565b52611f556040519182611719565b5f815290565b6117a894506040519584879551918291018587015e840190838201905f8252519283915e01015f815203601f198101835282611719565b935050505090565b9150505f528186805f205f905b848210611fbd5750611f1b93508201015f611f0e565b6001919350805483858801015201910187908492611fa7565b60ff19168852611f1b95151560051b85010192505f9150611f0e9050565b5f9081525f5160206121605f395f51905f5260205260409020546001600160a01b031690565b5f525f5160206121805f395f51905f5260205260405f206bffffffffffffffffffffffff60a01b8154169055565b60ff5f5160206121a05f395f51905f525460401c161561206457565b631afcd79f60e31b5f5260045ffd5b905f8091602081519101845af480806120ec575b156120a75750506040513d81523d5f602083013e60203d82010160405290565b156120cc57639996b31560e01b5f9081526001600160a01b0391909116600452602490fd5b3d156120dd576040513d5f823e3d90fd5b63d6bda27560e01b5f5260045ffd5b503d1515806120875750813b151561208756fe80bb2b638cc20bc4d0a60d66940f3ab4a00c1d7b313497ca82fb0b4ab0079300360894a13ba1a3210667c828492db98dca3e2076cc3735a920a3ca505d382bbc02dd7bc7dec4dceedda775e58dd541e08a116c6c53815c0bd028192f7b62680080bb2b638cc20bc4d0a60d66940f3ab4a00c1d7b313497ca82fb0b4ab007930280bb2b638cc20bc4d0a60d66940f3ab4a00c1d7b313497ca82fb0b4ab0079304f0c57e16840df040f15088dc2f81fe391c3923bec73e23a9662efc9c229c6a0080bb2b638cc20bc4d0a60d66940f3ab4a00c1d7b313497ca82fb0b4ab007930137c58c799b6609234b945e882912ee9ad34948a1dfaa20a97485e1a7752bbf81a2646970667358221220c16e4b470df13ed6834ed12576f66232e5b962bc39d6e06a79a07fd9701e019464736f6c634300081c0033f0c57e16840df040f15088dc2f81fe391c3923bec73e23a9662efc9c229c6a00",
  "linkReferences": {},
  "deployedLinkReferences": {}
}