{
  "_format": "hh-sol-artifact-1",
  "contractName": "JuryDAO",
  "sourceName": "contracts/JuryDAO.sol",
  "abi": [
    {
      "inputs": [],
      "stateMutability": "nonpayable",
      "type": "constructor"
    },
    {
      "inputs": [
        {
          "internalType": "address",
          "name": "target",
          "type": "address"
        }
      ],
      "name": "AddressEmptyCode",
      "type": "error"
    },
    {
      "inputs": [
        {
          "internalType": "uint256",
          "name": "caseId",
          "type": "uint256"
        }
      ],
      "name": "AlreadyCommitted",
      "type": "error"
    },
    {
      "inputs": [],
      "name": "AlreadyRegistered",
      "type": "error"
    },
    {
      "inputs": [
        {
          "internalType": "uint256",
          "name": "caseId",
          "type": "uint256"
        }
      ],
      "name": "AlreadyRevealed",
      "type": "error"
    },
    {
      "inputs": [
        {
          "internalType": "uint256",
          "name": "caseId",
          "type": "uint256"
        }
      ],
      "name": "CaseNotResolved",
      "type": "error"
    },
    {
      "inputs": [
        {
          "internalType": "uint256",
          "name": "commitDeadline",
          "type": "uint256"
        }
      ],
      "name": "CommitPhaseClosed",
      "type": "error"
    },
    {
      "inputs": [
        {
          "internalType": "uint256",
          "name": "cooldownUntil",
          "type": "uint256"
        }
      ],
      "name": "CooldownActive",
      "type": "error"
    },
    {
      "inputs": [
        {
          "internalType": "uint256",
          "name": "caseId",
          "type": "uint256"
        }
      ],
      "name": "DidNotVoteCorrectly",
      "type": "error"
    },
    {
      "inputs": [
        {
          "internalType": "address",
          "name": "implementation",
          "type": "address"
        }
      ],
      "name": "ERC1967InvalidImplementation",
      "type": "error"
    },
    {
      "inputs": [],
      "name": "ERC1967NonPayable",
      "type": "error"
    },
    {
      "inputs": [],
      "name": "FailedCall",
      "type": "error"
    },
    {
      "inputs": [],
      "name": "HasActiveCase",
      "type": "error"
    },
    {
      "inputs": [
        {
          "internalType": "uint256",
          "name": "requested",
          "type": "uint256"
        },
        {
          "internalType": "uint256",
          "name": "available",
          "type": "uint256"
        }
      ],
      "name": "InsufficientSlashedTreasury",
      "type": "error"
    },
    {
      "inputs": [],
      "name": "InvalidAddress",
      "type": "error"
    },
    {
      "inputs": [],
      "name": "InvalidBps",
      "type": "error"
    },
    {
      "inputs": [
        {
          "internalType": "uint256",
          "name": "caseId",
          "type": "uint256"
        }
      ],
      "name": "InvalidCommitment",
      "type": "error"
    },
    {
      "inputs": [],
      "name": "InvalidInitialization",
      "type": "error"
    },
    {
      "inputs": [],
      "name": "MissingReason",
      "type": "error"
    },
    {
      "inputs": [
        {
          "internalType": "uint256",
          "name": "caseId",
          "type": "uint256"
        }
      ],
      "name": "NotAssignedJuror",
      "type": "error"
    },
    {
      "inputs": [
        {
          "internalType": "uint256",
          "name": "caseId",
          "type": "uint256"
        }
      ],
      "name": "NotCommitted",
      "type": "error"
    },
    {
      "inputs": [
        {
          "internalType": "uint256",
          "name": "available",
          "type": "uint256"
        },
        {
          "internalType": "uint256",
          "name": "required",
          "type": "uint256"
        }
      ],
      "name": "NotEnoughJurors",
      "type": "error"
    },
    {
      "inputs": [],
      "name": "NotInitializing",
      "type": "error"
    },
    {
      "inputs": [],
      "name": "NotRegistered",
      "type": "error"
    },
    {
      "inputs": [],
      "name": "OnlyMarketEscrow",
      "type": "error"
    },
    {
      "inputs": [
        {
          "internalType": "address",
          "name": "owner",
          "type": "address"
        }
      ],
      "name": "OwnableInvalidOwner",
      "type": "error"
    },
    {
      "inputs": [
        {
          "internalType": "address",
          "name": "account",
          "type": "address"
        }
      ],
      "name": "OwnableUnauthorizedAccount",
      "type": "error"
    },
    {
      "inputs": [],
      "name": "PeriodTooShort",
      "type": "error"
    },
    {
      "inputs": [],
      "name": "ReentrancyGuardReentrantCall",
      "type": "error"
    },
    {
      "inputs": [
        {
          "internalType": "uint256",
          "name": "revealDeadline",
          "type": "uint256"
        }
      ],
      "name": "RevealPhaseClosed",
      "type": "error"
    },
    {
      "inputs": [
        {
          "internalType": "uint256",
          "name": "commitDeadline",
          "type": "uint256"
        },
        {
          "internalType": "uint256",
          "name": "revealDeadline",
          "type": "uint256"
        }
      ],
      "name": "RevealPhaseNotOpen",
      "type": "error"
    },
    {
      "inputs": [],
      "name": "RewardAlreadyClaimed",
      "type": "error"
    },
    {
      "inputs": [
        {
          "internalType": "uint256",
          "name": "unlockAt",
          "type": "uint256"
        }
      ],
      "name": "StakeLockedUntil",
      "type": "error"
    },
    {
      "inputs": [],
      "name": "TransferFailed",
      "type": "error"
    },
    {
      "inputs": [],
      "name": "UUPSUnauthorizedCallContext",
      "type": "error"
    },
    {
      "inputs": [
        {
          "internalType": "bytes32",
          "name": "slot",
          "type": "bytes32"
        }
      ],
      "name": "UUPSUnsupportedProxiableUUID",
      "type": "error"
    },
    {
      "inputs": [
        {
          "internalType": "uint256",
          "name": "caseId",
          "type": "uint256"
        }
      ],
      "name": "VotingStillOpen",
      "type": "error"
    },
    {
      "inputs": [
        {
          "internalType": "enum CaseStatus",
          "name": "current",
          "type": "uint8"
        }
      ],
      "name": "WrongCaseStatus",
      "type": "error"
    },
    {
      "anonymous": false,
      "inputs": [
        {
          "indexed": true,
          "internalType": "uint256",
          "name": "caseId",
          "type": "uint256"
        },
        {
          "indexed": true,
          "internalType": "uint256",
          "name": "listingId",
          "type": "uint256"
        },
        {
          "indexed": true,
          "internalType": "address",
          "name": "challenger",
          "type": "address"
        },
        {
          "indexed": false,
          "internalType": "address",
          "name": "buyer",
          "type": "address"
        },
        {
          "indexed": false,
          "internalType": "address",
          "name": "seller",
          "type": "address"
        },
        {
          "indexed": false,
          "internalType": "uint256",
          "name": "disputeFeeAmount",
          "type": "uint256"
        },
        {
          "indexed": false,
          "internalType": "bytes32",
          "name": "evidenceHash",
          "type": "bytes32"
        },
        {
          "indexed": false,
          "internalType": "string",
          "name": "evidenceURI",
          "type": "string"
        },
        {
          "indexed": false,
          "internalType": "address[3]",
          "name": "jurors",
          "type": "address[3]"
        },
        {
          "indexed": false,
          "internalType": "uint256",
          "name": "openedAt",
          "type": "uint256"
        },
        {
          "indexed": false,
          "internalType": "uint256",
          "name": "commitDeadline",
          "type": "uint256"
        },
        {
          "indexed": false,
          "internalType": "uint256",
          "name": "revealDeadline",
          "type": "uint256"
        }
      ],
      "name": "CaseOpenedFull",
      "type": "event"
    },
    {
      "anonymous": false,
      "inputs": [
        {
          "indexed": false,
          "internalType": "uint256",
          "name": "commitPeriod",
          "type": "uint256"
        }
      ],
      "name": "CommitPeriodUpdated",
      "type": "event"
    },
    {
      "anonymous": false,
      "inputs": [
        {
          "indexed": false,
          "internalType": "uint64",
          "name": "version",
          "type": "uint64"
        }
      ],
      "name": "Initialized",
      "type": "event"
    },
    {
      "anonymous": false,
      "inputs": [
        {
          "indexed": true,
          "internalType": "address",
          "name": "juror",
          "type": "address"
        },
        {
          "indexed": false,
          "internalType": "uint256",
          "name": "cooldownUntil",
          "type": "uint256"
        }
      ],
      "name": "JurorCooldownSet",
      "type": "event"
    },
    {
      "anonymous": false,
      "inputs": [
        {
          "indexed": true,
          "internalType": "address",
          "name": "juror",
          "type": "address"
        },
        {
          "indexed": false,
          "internalType": "uint256",
          "name": "staked",
          "type": "uint256"
        },
        {
          "indexed": false,
          "internalType": "uint256",
          "name": "unlockAt",
          "type": "uint256"
        }
      ],
      "name": "JurorRegistered",
      "type": "event"
    },
    {
      "anonymous": false,
      "inputs": [
        {
          "indexed": true,
          "internalType": "address",
          "name": "juror",
          "type": "address"
        },
        {
          "indexed": true,
          "internalType": "uint256",
          "name": "caseId",
          "type": "uint256"
        },
        {
          "indexed": false,
          "internalType": "uint256",
          "name": "amount",
          "type": "uint256"
        },
        {
          "indexed": false,
          "internalType": "uint8",
          "name": "reasonCode",
          "type": "uint8"
        }
      ],
      "name": "JurorSlashed",
      "type": "event"
    },
    {
      "anonymous": false,
      "inputs": [
        {
          "indexed": true,
          "internalType": "address",
          "name": "juror",
          "type": "address"
        },
        {
          "indexed": false,
          "internalType": "uint256",
          "name": "unstaked",
          "type": "uint256"
        },
        {
          "indexed": false,
          "internalType": "uint256",
          "name": "cooldownUntil",
          "type": "uint256"
        }
      ],
      "name": "JurorUnregistered",
      "type": "event"
    },
    {
      "anonymous": false,
      "inputs": [
        {
          "indexed": true,
          "internalType": "address",
          "name": "marketEscrow",
          "type": "address"
        }
      ],
      "name": "MarketEscrowSet",
      "type": "event"
    },
    {
      "anonymous": false,
      "inputs": [
        {
          "indexed": false,
          "internalType": "uint256",
          "name": "minStake",
          "type": "uint256"
        }
      ],
      "name": "MinStakeUpdated",
      "type": "event"
    },
    {
      "anonymous": false,
      "inputs": [
        {
          "indexed": false,
          "internalType": "uint256",
          "name": "nonRevealSlashBps",
          "type": "uint256"
        }
      ],
      "name": "NonRevealSlashBpsUpdated",
      "type": "event"
    },
    {
      "anonymous": false,
      "inputs": [
        {
          "indexed": true,
          "internalType": "address",
          "name": "previousOwner",
          "type": "address"
        },
        {
          "indexed": true,
          "internalType": "address",
          "name": "newOwner",
          "type": "address"
        }
      ],
      "name": "OwnershipTransferred",
      "type": "event"
    },
    {
      "anonymous": false,
      "inputs": [
        {
          "indexed": false,
          "internalType": "uint256",
          "name": "rejoinCooldown",
          "type": "uint256"
        }
      ],
      "name": "RejoinCooldownUpdated",
      "type": "event"
    },
    {
      "anonymous": false,
      "inputs": [
        {
          "indexed": false,
          "internalType": "uint256",
          "name": "revealPeriod",
          "type": "uint256"
        }
      ],
      "name": "RevealPeriodUpdated",
      "type": "event"
    },
    {
      "anonymous": false,
      "inputs": [
        {
          "indexed": true,
          "internalType": "uint256",
          "name": "caseId",
          "type": "uint256"
        },
        {
          "indexed": true,
          "internalType": "address",
          "name": "juror",
          "type": "address"
        },
        {
          "indexed": false,
          "internalType": "uint256",
          "name": "amount",
          "type": "uint256"
        },
        {
          "indexed": false,
          "internalType": "uint256",
          "name": "claimedAt",
          "type": "uint256"
        }
      ],
      "name": "RewardClaimed",
      "type": "event"
    },
    {
      "anonymous": false,
      "inputs": [
        {
          "indexed": true,
          "internalType": "address",
          "name": "to",
          "type": "address"
        },
        {
          "indexed": false,
          "internalType": "uint256",
          "name": "amount",
          "type": "uint256"
        }
      ],
      "name": "SlashedTreasuryWithdrawn",
      "type": "event"
    },
    {
      "anonymous": false,
      "inputs": [
        {
          "indexed": false,
          "internalType": "uint256",
          "name": "stakeLockPeriod",
          "type": "uint256"
        }
      ],
      "name": "StakeLockPeriodUpdated",
      "type": "event"
    },
    {
      "anonymous": false,
      "inputs": [
        {
          "indexed": true,
          "internalType": "address",
          "name": "implementation",
          "type": "address"
        }
      ],
      "name": "Upgraded",
      "type": "event"
    },
    {
      "anonymous": false,
      "inputs": [
        {
          "indexed": true,
          "internalType": "uint256",
          "name": "caseId",
          "type": "uint256"
        },
        {
          "indexed": true,
          "internalType": "uint256",
          "name": "listingId",
          "type": "uint256"
        },
        {
          "indexed": false,
          "internalType": "bool",
          "name": "buyerWins",
          "type": "bool"
        },
        {
          "indexed": false,
          "internalType": "enum CaseStatus",
          "name": "status",
          "type": "uint8"
        },
        {
          "indexed": false,
          "internalType": "uint8",
          "name": "votesForBuyer",
          "type": "uint8"
        },
        {
          "indexed": false,
          "internalType": "uint8",
          "name": "votesForSeller",
          "type": "uint8"
        },
        {
          "indexed": false,
          "internalType": "uint8",
          "name": "commitCount",
          "type": "uint8"
        },
        {
          "indexed": false,
          "internalType": "uint8",
          "name": "revealCount",
          "type": "uint8"
        }
      ],
      "name": "VerdictFinalized",
      "type": "event"
    },
    {
      "anonymous": false,
      "inputs": [
        {
          "indexed": true,
          "internalType": "uint256",
          "name": "caseId",
          "type": "uint256"
        },
        {
          "indexed": true,
          "internalType": "address",
          "name": "juror",
          "type": "address"
        },
        {
          "indexed": false,
          "internalType": "bytes32",
          "name": "commitment",
          "type": "bytes32"
        },
        {
          "indexed": false,
          "internalType": "uint256",
          "name": "committedAt",
          "type": "uint256"
        }
      ],
      "name": "VoteCommitted",
      "type": "event"
    },
    {
      "anonymous": false,
      "inputs": [
        {
          "indexed": true,
          "internalType": "uint256",
          "name": "caseId",
          "type": "uint256"
        },
        {
          "indexed": true,
          "internalType": "address",
          "name": "juror",
          "type": "address"
        },
        {
          "indexed": false,
          "internalType": "uint256",
          "name": "slashedAmount",
          "type": "uint256"
        },
        {
          "indexed": false,
          "internalType": "uint256",
          "name": "revealDeadline",
          "type": "uint256"
        }
      ],
      "name": "VoteRevealMissed",
      "type": "event"
    },
    {
      "anonymous": false,
      "inputs": [
        {
          "indexed": true,
          "internalType": "uint256",
          "name": "caseId",
          "type": "uint256"
        },
        {
          "indexed": true,
          "internalType": "address",
          "name": "juror",
          "type": "address"
        },
        {
          "indexed": false,
          "internalType": "bool",
          "name": "voteForBuyer",
          "type": "bool"
        },
        {
          "indexed": false,
          "internalType": "bytes32",
          "name": "reasonHash",
          "type": "bytes32"
        },
        {
          "indexed": false,
          "internalType": "string",
          "name": "reasonURI",
          "type": "string"
        },
        {
          "indexed": false,
          "internalType": "uint256",
          "name": "revealedAt",
          "type": "uint256"
        }
      ],
      "name": "VoteRevealed",
      "type": "event"
    },
    {
      "inputs": [],
      "name": "UPGRADE_INTERFACE_VERSION",
      "outputs": [
        {
          "internalType": "string",
          "name": "",
          "type": "string"
        }
      ],
      "stateMutability": "view",
      "type": "function"
    },
    {
      "inputs": [
        {
          "internalType": "uint256",
          "name": "",
          "type": "uint256"
        }
      ],
      "name": "cases",
      "outputs": [
        {
          "internalType": "uint256",
          "name": "id",
          "type": "uint256"
        },
        {
          "internalType": "uint256",
          "name": "listingId",
          "type": "uint256"
        },
        {
          "internalType": "address",
          "name": "buyer",
          "type": "address"
        },
        {
          "internalType": "address",
          "name": "seller",
          "type": "address"
        },
        {
          "internalType": "address",
          "name": "challenger",
          "type": "address"
        },
        {
          "internalType": "uint256",
          "name": "disputeFeeAmount",
          "type": "uint256"
        },
        {
          "internalType": "bytes32",
          "name": "evidenceHash",
          "type": "bytes32"
        },
        {
          "internalType": "string",
          "name": "evidenceURI",
          "type": "string"
        },
        {
          "internalType": "uint8",
          "name": "votesForBuyer",
          "type": "uint8"
        },
        {
          "internalType": "uint8",
          "name": "votesForSeller",
          "type": "uint8"
        },
        {
          "internalType": "uint8",
          "name": "commitCount",
          "type": "uint8"
        },
        {
          "internalType": "uint8",
          "name": "revealCount",
          "type": "uint8"
        },
        {
          "internalType": "uint256",
          "name": "openedAt",
          "type": "uint256"
        },
        {
          "internalType": "uint256",
          "name": "commitDeadline",
          "type": "uint256"
        },
        {
          "internalType": "uint256",
          "name": "revealDeadline",
          "type": "uint256"
        },
        {
          "internalType": "enum CaseStatus",
          "name": "status",
          "type": "uint8"
        }
      ],
      "stateMutability": "view",
      "type": "function"
    },
    {
      "inputs": [
        {
          "internalType": "uint256",
          "name": "caseId",
          "type": "uint256"
        }
      ],
      "name": "claimReward",
      "outputs": [],
      "stateMutability": "nonpayable",
      "type": "function"
    },
    {
      "inputs": [],
      "name": "commitPeriod",
      "outputs": [
        {
          "internalType": "uint256",
          "name": "",
          "type": "uint256"
        }
      ],
      "stateMutability": "view",
      "type": "function"
    },
    {
      "inputs": [
        {
          "internalType": "uint256",
          "name": "caseId",
          "type": "uint256"
        },
        {
          "internalType": "bytes32",
          "name": "commitment",
          "type": "bytes32"
        }
      ],
      "name": "commitVote",
      "outputs": [],
      "stateMutability": "nonpayable",
      "type": "function"
    },
    {
      "inputs": [
        {
          "internalType": "uint256",
          "name": "caseId",
          "type": "uint256"
        }
      ],
      "name": "finalizeVerdict",
      "outputs": [],
      "stateMutability": "nonpayable",
      "type": "function"
    },
    {
      "inputs": [
        {
          "internalType": "uint256",
          "name": "caseId",
          "type": "uint256"
        }
      ],
      "name": "getCase",
      "outputs": [
        {
          "components": [
            {
              "internalType": "uint256",
              "name": "id",
              "type": "uint256"
            },
            {
              "internalType": "uint256",
              "name": "listingId",
              "type": "uint256"
            },
            {
              "internalType": "address",
              "name": "buyer",
              "type": "address"
            },
            {
              "internalType": "address",
              "name": "seller",
              "type": "address"
            },
            {
              "internalType": "address",
              "name": "challenger",
              "type": "address"
            },
            {
              "internalType": "uint256",
              "name": "disputeFeeAmount",
              "type": "uint256"
            },
            {
              "internalType": "bytes32",
              "name": "evidenceHash",
              "type": "bytes32"
            },
            {
              "internalType": "string",
              "name": "evidenceURI",
              "type": "string"
            },
            {
              "internalType": "address[3]",
              "name": "jurors",
              "type": "address[3]"
            },
            {
              "internalType": "uint8",
              "name": "votesForBuyer",
              "type": "uint8"
            },
            {
              "internalType": "uint8",
              "name": "votesForSeller",
              "type": "uint8"
            },
            {
              "internalType": "uint8",
              "name": "commitCount",
              "type": "uint8"
            },
            {
              "internalType": "uint8",
              "name": "revealCount",
              "type": "uint8"
            },
            {
              "internalType": "uint256",
              "name": "openedAt",
              "type": "uint256"
            },
            {
              "internalType": "uint256",
              "name": "commitDeadline",
              "type": "uint256"
            },
            {
              "internalType": "uint256",
              "name": "revealDeadline",
              "type": "uint256"
            },
            {
              "internalType": "enum CaseStatus",
              "name": "status",
              "type": "uint8"
            }
          ],
          "internalType": "struct Case",
          "name": "",
          "type": "tuple"
        }
      ],
      "stateMutability": "view",
      "type": "function"
    },
    {
      "inputs": [
        {
          "internalType": "uint256",
          "name": "caseId",
          "type": "uint256"
        },
        {
          "internalType": "address",
          "name": "juror",
          "type": "address"
        }
      ],
      "name": "getCommitment",
      "outputs": [
        {
          "internalType": "bytes32",
          "name": "",
          "type": "bytes32"
        }
      ],
      "stateMutability": "view",
      "type": "function"
    },
    {
      "inputs": [
        {
          "internalType": "uint256",
          "name": "caseId",
          "type": "uint256"
        },
        {
          "internalType": "address",
          "name": "juror",
          "type": "address"
        }
      ],
      "name": "getJurorReason",
      "outputs": [
        {
          "internalType": "bytes32",
          "name": "reasonHash",
          "type": "bytes32"
        },
        {
          "internalType": "string",
          "name": "reasonURI",
          "type": "string"
        }
      ],
      "stateMutability": "view",
      "type": "function"
    },
    {
      "inputs": [
        {
          "internalType": "uint256",
          "name": "caseId",
          "type": "uint256"
        },
        {
          "internalType": "address",
          "name": "juror",
          "type": "address"
        }
      ],
      "name": "getVote",
      "outputs": [
        {
          "internalType": "enum Vote",
          "name": "",
          "type": "uint8"
        }
      ],
      "stateMutability": "view",
      "type": "function"
    },
    {
      "inputs": [
        {
          "internalType": "uint256",
          "name": "caseId",
          "type": "uint256"
        },
        {
          "internalType": "address",
          "name": "juror",
          "type": "address"
        }
      ],
      "name": "hasCommittedVote",
      "outputs": [
        {
          "internalType": "bool",
          "name": "",
          "type": "bool"
        }
      ],
      "stateMutability": "view",
      "type": "function"
    },
    {
      "inputs": [
        {
          "internalType": "uint256",
          "name": "caseId",
          "type": "uint256"
        },
        {
          "internalType": "address",
          "name": "juror",
          "type": "address"
        }
      ],
      "name": "hasRevealedVote",
      "outputs": [
        {
          "internalType": "bool",
          "name": "",
          "type": "bool"
        }
      ],
      "stateMutability": "view",
      "type": "function"
    },
    {
      "inputs": [
        {
          "internalType": "address",
          "name": "_trustToken",
          "type": "address"
        },
        {
          "internalType": "address",
          "name": "initialOwner",
          "type": "address"
        }
      ],
      "name": "initialize",
      "outputs": [],
      "stateMutability": "nonpayable",
      "type": "function"
    },
    {
      "inputs": [
        {
          "internalType": "uint256",
          "name": "caseId",
          "type": "uint256"
        },
        {
          "internalType": "address",
          "name": "juror",
          "type": "address"
        }
      ],
      "name": "isRewardClaimed",
      "outputs": [
        {
          "internalType": "bool",
          "name": "",
          "type": "bool"
        }
      ],
      "stateMutability": "view",
      "type": "function"
    },
    {
      "inputs": [
        {
          "internalType": "uint256",
          "name": "",
          "type": "uint256"
        }
      ],
      "name": "jurorPool",
      "outputs": [
        {
          "internalType": "address",
          "name": "",
          "type": "address"
        }
      ],
      "stateMutability": "view",
      "type": "function"
    },
    {
      "inputs": [],
      "name": "jurorPoolSize",
      "outputs": [
        {
          "internalType": "uint256",
          "name": "",
          "type": "uint256"
        }
      ],
      "stateMutability": "view",
      "type": "function"
    },
    {
      "inputs": [
        {
          "internalType": "address",
          "name": "",
          "type": "address"
        }
      ],
      "name": "jurors",
      "outputs": [
        {
          "internalType": "uint256",
          "name": "stakedAmount",
          "type": "uint256"
        },
        {
          "internalType": "uint256",
          "name": "casesServed",
          "type": "uint256"
        },
        {
          "internalType": "uint256",
          "name": "correctVotes",
          "type": "uint256"
        },
        {
          "internalType": "uint256",
          "name": "stakedAt",
          "type": "uint256"
        },
        {
          "internalType": "uint256",
          "name": "unlockAt",
          "type": "uint256"
        },
        {
          "internalType": "uint256",
          "name": "cooldownUntil",
          "type": "uint256"
        },
        {
          "internalType": "uint256",
          "name": "lifetimeSlash",
          "type": "uint256"
        },
        {
          "internalType": "bool",
          "name": "active",
          "type": "bool"
        }
      ],
      "stateMutability": "view",
      "type": "function"
    },
    {
      "inputs": [],
      "name": "marketEscrow",
      "outputs": [
        {
          "internalType": "contract IMarketEscrow",
          "name": "",
          "type": "address"
        }
      ],
      "stateMutability": "view",
      "type": "function"
    },
    {
      "inputs": [],
      "name": "minStake",
      "outputs": [
        {
          "internalType": "uint256",
          "name": "",
          "type": "uint256"
        }
      ],
      "stateMutability": "view",
      "type": "function"
    },
    {
      "inputs": [],
      "name": "nextCaseId",
      "outputs": [
        {
          "internalType": "uint256",
          "name": "",
          "type": "uint256"
        }
      ],
      "stateMutability": "view",
      "type": "function"
    },
    {
      "inputs": [],
      "name": "nonRevealSlashBps",
      "outputs": [
        {
          "internalType": "uint256",
          "name": "",
          "type": "uint256"
        }
      ],
      "stateMutability": "view",
      "type": "function"
    },
    {
      "inputs": [
        {
          "internalType": "uint256",
          "name": "listingId",
          "type": "uint256"
        },
        {
          "internalType": "address",
          "name": "buyer",
          "type": "address"
        },
        {
          "internalType": "address",
          "name": "seller",
          "type": "address"
        },
        {
          "internalType": "address",
          "name": "challenger",
          "type": "address"
        },
        {
          "internalType": "uint256",
          "name": "disputeFeeAmount",
          "type": "uint256"
        },
        {
          "internalType": "bytes32",
          "name": "evidenceHash",
          "type": "bytes32"
        },
        {
          "internalType": "string",
          "name": "evidenceURI",
          "type": "string"
        }
      ],
      "name": "openCase",
      "outputs": [
        {
          "internalType": "uint256",
          "name": "caseId",
          "type": "uint256"
        }
      ],
      "stateMutability": "payable",
      "type": "function"
    },
    {
      "inputs": [],
      "name": "owner",
      "outputs": [
        {
          "internalType": "address",
          "name": "",
          "type": "address"
        }
      ],
      "stateMutability": "view",
      "type": "function"
    },
    {
      "inputs": [],
      "name": "proxiableUUID",
      "outputs": [
        {
          "internalType": "bytes32",
          "name": "",
          "type": "bytes32"
        }
      ],
      "stateMutability": "view",
      "type": "function"
    },
    {
      "inputs": [],
      "name": "registerJuror",
      "outputs": [],
      "stateMutability": "nonpayable",
      "type": "function"
    },
    {
      "inputs": [],
      "name": "rejoinCooldown",
      "outputs": [
        {
          "internalType": "uint256",
          "name": "",
          "type": "uint256"
        }
      ],
      "stateMutability": "view",
      "type": "function"
    },
    {
      "inputs": [],
      "name": "renounceOwnership",
      "outputs": [],
      "stateMutability": "nonpayable",
      "type": "function"
    },
    {
      "inputs": [],
      "name": "revealPeriod",
      "outputs": [
        {
          "internalType": "uint256",
          "name": "",
          "type": "uint256"
        }
      ],
      "stateMutability": "view",
      "type": "function"
    },
    {
      "inputs": [
        {
          "internalType": "uint256",
          "name": "caseId",
          "type": "uint256"
        },
        {
          "internalType": "bool",
          "name": "voteForBuyer",
          "type": "bool"
        },
        {
          "internalType": "bytes32",
          "name": "salt",
          "type": "bytes32"
        },
        {
          "internalType": "bytes32",
          "name": "reasonHash",
          "type": "bytes32"
        },
        {
          "internalType": "string",
          "name": "reasonURI",
          "type": "string"
        }
      ],
      "name": "revealVote",
      "outputs": [],
      "stateMutability": "nonpayable",
      "type": "function"
    },
    {
      "inputs": [
        {
          "internalType": "uint256",
          "name": "",
          "type": "uint256"
        }
      ],
      "name": "rewardPool",
      "outputs": [
        {
          "internalType": "uint256",
          "name": "",
          "type": "uint256"
        }
      ],
      "stateMutability": "view",
      "type": "function"
    },
    {
      "inputs": [
        {
          "internalType": "uint256",
          "name": "_commitPeriod",
          "type": "uint256"
        }
      ],
      "name": "setCommitPeriod",
      "outputs": [],
      "stateMutability": "nonpayable",
      "type": "function"
    },
    {
      "inputs": [
        {
          "internalType": "address",
          "name": "_marketEscrow",
          "type": "address"
        }
      ],
      "name": "setMarketEscrow",
      "outputs": [],
      "stateMutability": "nonpayable",
      "type": "function"
    },
    {
      "inputs": [
        {
          "internalType": "uint256",
          "name": "_minStake",
          "type": "uint256"
        }
      ],
      "name": "setMinStake",
      "outputs": [],
      "stateMutability": "nonpayable",
      "type": "function"
    },
    {
      "inputs": [
        {
          "internalType": "uint256",
          "name": "_nonRevealSlashBps",
          "type": "uint256"
        }
      ],
      "name": "setNonRevealSlashBps",
      "outputs": [],
      "stateMutability": "nonpayable",
      "type": "function"
    },
    {
      "inputs": [
        {
          "internalType": "uint256",
          "name": "_rejoinCooldown",
          "type": "uint256"
        }
      ],
      "name": "setRejoinCooldown",
      "outputs": [],
      "stateMutability": "nonpayable",
      "type": "function"
    },
    {
      "inputs": [
        {
          "internalType": "uint256",
          "name": "_revealPeriod",
          "type": "uint256"
        }
      ],
      "name": "setRevealPeriod",
      "outputs": [],
      "stateMutability": "nonpayable",
      "type": "function"
    },
    {
      "inputs": [
        {
          "internalType": "uint256",
          "name": "_stakeLockPeriod",
          "type": "uint256"
        }
      ],
      "name": "setStakeLockPeriod",
      "outputs": [],
      "stateMutability": "nonpayable",
      "type": "function"
    },
    {
      "inputs": [],
      "name": "slashedStakeTreasury",
      "outputs": [
        {
          "internalType": "uint256",
          "name": "",
          "type": "uint256"
        }
      ],
      "stateMutability": "view",
      "type": "function"
    },
    {
      "inputs": [],
      "name": "stakeLockPeriod",
      "outputs": [
        {
          "internalType": "uint256",
          "name": "",
          "type": "uint256"
        }
      ],
      "stateMutability": "view",
      "type": "function"
    },
    {
      "inputs": [
        {
          "internalType": "address",
          "name": "newOwner",
          "type": "address"
        }
      ],
      "name": "transferOwnership",
      "outputs": [],
      "stateMutability": "nonpayable",
      "type": "function"
    },
    {
      "inputs": [],
      "name": "trustToken",
      "outputs": [
        {
          "internalType": "contract ITrustToken",
          "name": "",
          "type": "address"
        }
      ],
      "stateMutability": "view",
      "type": "function"
    },
    {
      "inputs": [],
      "name": "unregisterJuror",
      "outputs": [],
      "stateMutability": "nonpayable",
      "type": "function"
    },
    {
      "inputs": [
        {
          "internalType": "address",
          "name": "newImplementation",
          "type": "address"
        },
        {
          "internalType": "bytes",
          "name": "data",
          "type": "bytes"
        }
      ],
      "name": "upgradeToAndCall",
      "outputs": [],
      "stateMutability": "payable",
      "type": "function"
    },
    {
      "inputs": [
        {
          "internalType": "address",
          "name": "to",
          "type": "address"
        },
        {
          "internalType": "uint256",
          "name": "amount",
          "type": "uint256"
        }
      ],
      "name": "withdrawSlashedTrust",
      "outputs": [],
      "stateMutability": "nonpayable",
      "type": "function"
    },
    {
      "inputs": [
        {
          "internalType": "address payable",
          "name": "to",
          "type": "address"
        },
        {
          "internalType": "uint256",
          "name": "amount",
          "type": "uint256"
        }
      ],
      "name": "withdrawStuckEth",
      "outputs": [],
      "stateMutability": "nonpayable",
      "type": "function"
    },
    {
      "stateMutability": "payable",
      "type": "receive"
    }
  ],
  "bytecode": "0x60a080604052346100e65760017f9b779b17422d0df92223018b32b4d1fa46e071723d6817e2486d003becc55f0055306080525f5160206133775f395f51905f525460ff8160401c166100d7576002600160401b03196001600160401b03821601610084575b60405161328c90816100eb8239608051818181611e800152611f240152f35b6001600160401b0319166001600160401b039081175f5160206133775f395f51905f525581527fc7f505b2f371ae2175ee4913f4499e1f2633a7b5936321eed1cdaeb6115181d290602090a15f80610065565b63f92ee8a960e01b5f5260045ffd5b5f80fdfe6080604052600436101561001a575b3615610018575f80fd5b005b5f5f3560e01c80630743a2bd14612ae55780631cb5cf0614612a815780631fc5e6d214612a085780632a93a52b1461279f5780632e3a9690146127485780632f3dcc51146126ee57806334fba820146126d1578063375b3c0a146126b457806337650a1d1461227357806342316bff14612256578063485cc955146120bd578063499ab37e146120a05780634f1ef28614611ed457806352d1902d14611e6e5780636350eae814611e51578063715018a614611dea5780637706c4ba14611dc057806379918fd8146116f65780637f97ab03146116a057806389fb26821461165c5780638c80fd90146116105780638da5cb5b146115dc5780639ba1e3fe146115655780639da6918014611413578063a7b10715146113ae578063a91a1080146110c1578063ad3cb1cc14611076578063ae169a5014610d82578063af4cdbe91461083f578063b0f8086614610694578063b244b5121461066b578063bc3f931f1461061a578063c110004a146105d0578063d13deb2f146105a9578063dca5f6b01461051d578063e25c4c6f146104d3578063e7a8b39f1461046c578063ed21dd941461044e578063ee4c035914610430578063f09790dd1461030d578063f2fde38b146102e0578063f643d3d71461029c578063f713b0521461027e578063f9604681146102605763fc8e4b4c14610214575061000e565b3461025d57604036600319011261025d57604061022f612c1f565b916004358152600c602052209060018060a01b03165f52602052602060ff60405f2054166040519015158152f35b80fd5b503461025d578060031936011261025d576020601254604051908152f35b503461025d578060031936011261025d576020601154604051908152f35b503461025d57602036600319011261025d576004359060025482101561025d5760206102c783612e0e565b905460405160039290921b1c6001600160a01b03168152f35b503461025d57602036600319011261025d5761030a6102fd612c09565b610305612fe7565b612f76565b80f35b503461025d57602036600319011261025d5760043581526006602052604090208054600182015491600160a01b60019003600282015416600160a01b6001900360038301541691600160a01b600190036004820154169260058201549360068301546007840161037c90612d6e565b90600b85015496600c86015493600d87015495600e88015497600f015460ff16986040519c8d9c8d5260208d015260408c015260608b015260808a015260a089015260c088015260e08701610200905261020087016103da91612c35565b9460ff81166101008801528060081c60ff166101208801528060101c60ff1661014088015260181c60ff166101608701526101808601526101a08501526101c084015261042681612d18565b6101e08301520390f35b503461025d578060031936011261025d576020601654604051908152f35b503461025d578060031936011261025d576020600254604051908152f35b503461025d57602036600319011261025d57600435610489612fe7565b610e1081106104c4576020817fa43a66adbedb90c3d7eaa7be7a6313b1b34f4ab14652fe979b1e8db4d284098192601455604051908152a180f35b631260d0af60e31b8252600482fd5b503461025d57604036600319011261025d5760406104ef612c1f565b9160043581526008602052209060018060a01b03165f52602052602060ff60405f2054166040519015158152f35b503461025d57602036600319011261025d57610100906040906001600160a01b03610546612c09565b1681526004602052208054906001810154906002810154600382015460048301549060058401549260ff600760068701549601541695604051978852602088015260408701526060860152608085015260a084015260c0830152151560e0820152f35b503461025d578060031936011261025d57546040516001600160a01b039091168152602090f35b503461025d57604036600319011261025d5760406105ec612c1f565b916004358152600b602052209060018060a01b03165f52602052602060ff60405f2054166040519015158152f35b503461025d57604036600319011261025d576040610636612c1f565b9160043581526007602052209060018060a01b03165f52602052602060ff60405f2054166040519061066781612d18565b8152f35b503461025d578060031936011261025d576001546040516001600160a01b039091168152602090f35b503461025d578060031936011261025d5733815260046020526040812060078101805460ff811661083057600583015480421061081e575060019060ff1916179055601054815542600382015560046106ef60135442612ea3565b91019081556002546801000000000000000081101561080a5761071b8160016107399301600255612e0e565b81546001600160a01b0360039290921b91821b19163390911b179055565b6002543383526003602052604083205581602060018060a01b03825416606460105460405194859384926323b872dd60e01b845233600485015230602485015260448401525af180156107ff576107979184916107d0575b50612e5f565b601054905460405191825260208201527f968535bbb592d4c461951e846929ed78cba18c2cdb926be8ffba1dbb49cabf2660403392a280f35b6107f2915060203d6020116107f8575b6107ea8183612ca4565b810190612e47565b5f610791565b503d6107e0565b6040513d85823e3d90fd5b634e487b7160e01b83526041600452602483fd5b63c1ab61a160e01b8552600452602484fd5b630ea075bf60e21b8452600484fd5b50346109b95760203660031901126109b957600435805f52600660205260405f20600f81019160ff83541661087381612d18565b80610d675750600e8201805442111580610d53575b610d405760088301905f5b60038110610be3575050600b83018054909390600260ff821610610af357506001918295845f5260066020528660405f208560085f9201915b60038110610a3e575050506108e091612f3e565b5f5b600381106109bd57505060c060ff94939260017f6a14e64122b18522fc8ea85759a3b9d40521ea5773e88f82060fb5cacb7c541c930154958695546040519215159889845261093081612d18565b60208401528181166040840152818160081c166060840152818160101c16608084015260181c1660a0820152a36001546001600160a01b031691823b156109b95760445f92836040519586948593631bdc6d8d60e11b8552600485015260248401525af180156109ae576109a2575080f35b61001891505f90612ca4565b6040513d5f823e3d90fd5b5f80fd5b6109c78183612f67565b60018060a01b0391549060031b1c165f52600f60205260405f20546109ef575b6001016108e2565b6109f98183612f67565b60018060a01b0391549060031b1c165f52600f60205260405f20908154918215610a2a575f199092019091556109e7565b634e487b7160e01b5f52601160045260245ffd5b90919250610a4c8184612f67565b90545f8a8152600c6020908152604080832060039590951b9390931c6001600160a01b0316808352939052205460ff1615610aed57885f52600760205260405f2060018060a01b0382165f526020528260ff60405f205416610aad81612d18565b148015610ae6575b610ac6575b505b01908589926108cc565b5f526004602052600260405f2001610ade8154612f30565b90555f610aba565b505f610ab5565b50610abc565b600260089190911c60ff1610610bd4575f91600195845f5260066020528660405f2060085f9101905b60038110610b2f5750506108e091612f3e565b610b3b81839493612f67565b90545f8a8152600c6020908152604080832060039590951b9390931c6001600160a01b0316808352939052205460ff1615610bce57885f52600760205260405f2060018060a01b0382165f52602052600260ff60405f205416610b9d81612d18565b14610bae575b505b01908891610b1c565b5f526004602052600260405f2001610bc68154612f30565b90555f610ba3565b50610ba5565b6001916108e060028097612f3e565b610bed8184612f67565b60018060a01b0391549060031b1c1690845f52600b60205260405f2060018060a01b0383165f5260205260ff60405f20541680610d17575b610c34575b6001915001610893565b815f52600460205260405f209182549260155493848102948186041481151715610a2a57604088927f2df6bb6f98f1c5d1de539ed0d6df27bd97a224e2074edacca1da439d772cb473926127106001980490808211610d0f575b91819282610cac575b505050875482519182526020820152a3610c2a565b600692610cb891612e3a565b815501610cc6828254612ea3565b9055610cd481601654612ea3565b60165583857fd51651424de3bfe8c2a73a8c4f1781e24cc71cc19e86981b04a94d7b070d53228480518581528b6020820152a3805f80610c97565b905080610c8e565b50845f52600c60205260405f2060018060a01b0383165f5260205260ff60405f20541615610c25565b5063b28fbba760e01b5f5260045260245ffd5b50600360ff600b85015460181c1610610888565b6305a0648360e11b5f52610d7a81612d18565b60045260245ffd5b346109b95760203660031901126109b957600435610d9e61301a565b805f52600660205260405f20600160ff600f83015416610dbd81612d18565b03611063575f82815260086020908152604080832033845290915290205460ff1661105457610dec33826130a8565b15611041575f828152600c6020908152604080832033845290915290205460ff1615610f055760ff600b60029201541610801590825f52600760205260405f2060018060a01b0333165f52602052818160ff60405f2054168261102a575b8215611005575b505015610ff2575f91835f52600660205260405f209160085f9301925b60038110610f185785858015610f0557815f52600860205260405f2060018060a01b0333165f5260205260405f20600160ff19825416179055815f52600960205260405f20540490610ec08233613052565b6040519182524260208301527ffc6ecd966b430510beae9124efe7dd517ed5286d7ed0ae258f8556c7a9765a4460403393a360015f5160206132175f395f51905f5255005b50637654dbdd60e11b5f5260045260245ffd5b610f228185612f67565b90545f888152600c6020908152604080832060039590951b9390931c6001600160a01b0316808352939052205460ff1615610fe957865f52600760205260405f209060018060a01b03165f52602052828260ff60405f20541682610fd2575b8215610fad575b5050610f99575b6001905b01610e6e565b93610fa5600191612f30565b949050610f8f565b90915081610fbe575b508288610f88565b60029150610fcb81612d18565b1487610fb6565b915050610fde81612d18565b826001821491610f81565b50600190610f93565b82637654dbdd60e11b5f5260045260245ffd5b90915081611016575b508185610e51565b6002915061102381612d18565b148461100e565b91505061103681612d18565b816001821491610e4a565b50637ecbf15160e01b5f5260045260245ffd5b632cfe303760e21b5f5260045ffd5b506315a270a160e21b5f5260045260245ffd5b346109b9575f3660031901126109b9576110bd604051611097604082612ca4565b60058152640352e302e360dc1b6020820152604051918291602083526020830190612c35565b0390f35b346109b95760203660031901126109b9576040516110de81612c87565b5f81525f60208201525f60408201525f60608201525f60808201525f60a08201525f60c0820152606060e08201525f6102006060926040516111208582612ca4565b8436823761010082015282610120820152826101408201528261016082015282610180820152826101a0820152826101c0820152826101e082015201526004355f52600660205260405f209060405161117881612c87565b825481526001830154602082015260028301546001600160a01b03908116604083015260038401548116838301526004840154166080820152600583015460a0820152600683015460c08201526111d160078401612d6e565b60e0820152604051600884015f825b6003821061138e575050506111f58382612ca4565b61010082015260ff600f600b85015494828616610120850152828660081c16610140850152828660101c166101608501528261018085019660181c168652600c8101546101a0850152600d8101546101c0850152600e8101546101e085015201541661126081612d18565b6102008201526040519160208352815160208401526020820151604084015260018060a01b036040830151168184015260018060a01b039082015116608083015260018060a01b0360808201511660a083015260a081015160c083015260c081015160e08301526112e360e0820151610260610100850152610280840190612c35565b906101008101519361012084015f905b6003821061136e578580866102008760ff88816101208401511661018087015281610140840151166101a087015281610160840151166101c087015251166101e08501526101a0810151828501526101c08101516102208501526101e0810151610240850152015161136481612d18565b6102608301520390f35b86516001600160a01b0316815260209687019660019290920191016112f3565b82546001600160a01b0316815260019283019291909101906020016111e0565b346109b95760203660031901126109b9576004356113ca612fe7565b610e108110611404576020817fd13a724bf285fbea7743ae75ede247a926c30683336c7b21508e4d6c18d0b0f192601255604051908152a1005b631260d0af60e31b5f5260045ffd5b346109b95760403660031901126109b95760043560243590805f52600660205260405f2060ff600f8201541661144881612d18565b80610d675750600d810154804211611553575061146533826130a8565b15611041575f828152600b6020908152604080832033845290915290205460ff1661154057821561152d575f828152600b6020818152604080842033808652908352818520805460ff19166001179055868552600a83528185209085529091529091208490550180546114f991906114e29060101c60ff16612eff565b62ff000082549160101b169062ff00001916179055565b6040519182524260208301527ff2dbd2ebdd7385bf137294ba1ac03500744ceef41ca96bd3c0914b95c8b0294d60403393a3005b5063018f31f560e51b5f5260045260245ffd5b506306da013d60e21b5f5260045260245ffd5b63e5d2182960e01b5f5260045260245ffd5b346109b95760203660031901126109b95761157e612c09565b611586612fe7565b6001600160a01b031680156115cd57600180546001600160a01b031916821790557f2c12c1eb3111c16578f3b0af068f21e84dba44eb189dac5b3e0730ac1a0585a75f80a2005b63e6c4247b60e01b5f5260045ffd5b346109b9575f3660031901126109b9575f5160206131d75f395f51905f52546040516001600160a01b039091168152602090f35b346109b95760203660031901126109b9577f47ab46f2c8d4258304a2f5551c1cbdb6981be49631365d1ba7191288a73f39ef602060043561164f612fe7565b80601055604051908152a1005b346109b95760403660031901126109b957611675612c1f565b6004355f52600a60205260405f209060018060a01b03165f52602052602060405f2054604051908152f35b346109b95760203660031901126109b9576004356116bc612fe7565b610e108110611404576020817ff891b4326107c4a06d9423bb09bc46e2e49156021c5202db2c9d5b215dd9a26492601155604051908152a1005b60e03660031901126109b95761170a612c1f565b604435906001600160a01b03821682036109b9576064356001600160a01b03811681036109b95760c43567ffffffffffffffff81116109b957611751903690600401612c59565b60015491939092916001600160a01b03163303611db157606094604051936117798786612ca4565b8636863760025460038110611d7b57611791816130f3565b9161179f6040519384612ca4565b818352601f196117ae836130f3565b013660208501375f5b828110611d9c575060405160208101904482524260408201526001600160601b0319878c1b168b8201526001600160601b0319868c1b1660748201528360888201526088815261180860a882612ca4565b519020985f965f5b84811080611d92575b15611915576118288186612e3a565b80156119015761183a908d0682612ea3565b9b6040516020810191825260208152611854604082612ca4565b5190209b611883611865838961310b565b5191611871818a61310b565b5161187c858b61310b565b528861310b565b52611897611891828861310b565b51612e0e565b90546001600160a01b0360039290921b1c8116908b908a16821415806118ee575b6118cd575b50506118c890612f30565b611810565b996118e6916118e0826118c8959d612f56565b52612f30565b98908a6118bd565b506001600160a01b0389168214156118b8565b634e487b7160e01b5f52601260045260245ffd5b50935093915094879060038110611d7b57506005549561193487612f30565b60055561194360115442612ea3565b9461195060125487612ea3565b9360405161195d81612c87565b89815260043560208201526001600160a01b038981166040830152828116848301528716608082015260843560a082015260a43560c08201526119a1368587612ce2565b60e0820190815261010082018c90525f6101208301819052610140830181905261016083018190526101808301819052426101a08401526101c083018a90526101e0830188905261020083018190528b81526006602081815260409283902085518155908501516001820155918401516002830180546001600160a01b039283166001600160a01b03199182161790915587860151600385018054918416918316919091179055608086015160048501805491909316911617905560a0840151600583015560c08401519082015590518051919291600784019167ffffffffffffffff8211611d6757611a9e82611a988554612d36565b85612eb0565b602090601f8311600114611d0457611acd92915f9183611cf9575b50508160011b915f199060031b1c19161790565b90555b6101008101515f5b60038110611cd957505090600f610200611b9993611b66600b850160ff80610120850151161660ff19825416178155611b2a60ff61014085015116829061ff0082549160081b169061ff001916179055565b610160830151815462ff0000191660109190911b62ff000016178155610180830151815463ff000000191660189190911b63ff00000016179055565b6101a0810151600c8501556101c0810151600d8501556101e0810151600e850155015191611b9383612d18565b01612f3e565b885f5260096020523460405f20555f5b60038110611c795750604080516001600160a01b03998a1681529890911660208901526084359088015260a4359087015261016060808701819052611bf2929087019190612f10565b925f60a086015b60038210611c5957505042610100860152610120850152610140840152602094506001600160a01b0316916004359184917ffbf2b7e4d7814f5f7c3d91f9cf03f4043e131aa88b4caf5e31f3dca6256cfebb9181900390a4604051908152f35b88516001600160a01b031681526020988901986001929092019101611bf9565b6001906001600160a01b03611c8e828e612f56565b51165f52600f60205260405f20611ca58154612f30565b90558b611cb882848060a01b0392612f56565b51165f5260046020528160405f2001611cd18154612f30565b905501611ba9565b81516001600160a01b031660088286010155602090910190600101611ad8565b015190505f80611ab9565b90601f19831691845f52815f20925f5b818110611d4f5750908460019594939210611d37575b505050811b019055611ad0565b01515f1960f88460031b161c191690558f8080611d2a565b92936020600181928786015181550195019301611d14565b634e487b7160e01b5f52604160045260245ffd5b638be3c9f760e01b5f52600452600360245260445ffd5b5060038910611819565b8080611daa6001938761310b565b52016117b7565b63c774d6c160e01b5f5260045ffd5b346109b95760203660031901126109b9576004355f526009602052602060405f2054604051908152f35b346109b9575f3660031901126109b957611e02612fe7565b5f5160206131d75f395f51905f5280546001600160a01b031981169091555f906001600160a01b03167f8be0079c531659141344cd1fd0a4f28419497f9722a3daafe3b4186f6b6457e08280a3005b346109b9575f3660031901126109b9576020600554604051908152f35b346109b9575f3660031901126109b9577f00000000000000000000000000000000000000000000000000000000000000006001600160a01b03163003611ec55760206040515f5160206131f75f395f51905f528152f35b63703e46dd60e11b5f5260045ffd5b60403660031901126109b957611ee8612c09565b60243567ffffffffffffffff81116109b957366023820112156109b957611f19903690602481600401359101612ce2565b906001600160a01b037f00000000000000000000000000000000000000000000000000000000000000001630811490811561207e575b50611ec557611f5c612fe7565b6040516352d1902d60e01b81526001600160a01b0382169290602081600481875afa5f918161204a575b50611f9e5783634c9c8ce360e01b5f5260045260245ffd5b805f5160206131f75f395f51905f528592036120385750823b15612026575f5160206131f75f395f51905f5280546001600160a01b031916821790557fbc7cd75a20ee27fd9adebab32041f755214dbc6bffa90cc0225b39da2e5c2d3b5f80a280511561200e576100189161314a565b50503461201757005b63b398979f60e01b5f5260045ffd5b634c9c8ce360e01b5f5260045260245ffd5b632a87526960e21b5f5260045260245ffd5b9091506020813d602011612076575b8161206660209383612ca4565b810103126109b957519085611f86565b3d9150612059565b5f5160206131f75f395f51905f52546001600160a01b03161415905083611f4f565b346109b9575f3660031901126109b9576020601354604051908152f35b346109b95760403660031901126109b9576120d6612c09565b6120de612c1f565b905f5160206132375f395f51905f525460ff8160401c16159267ffffffffffffffff82168015908161224e575b6001149081612244575b15908161223b575b5061222c5767ffffffffffffffff1982166001175f5160206132375f395f51905f525561215b9184612200575b5061215361311f565b61030561311f565b60018060a01b03166001600160601b0360a01b5f5416175f5568056bc75e2d63100000601055620151806011556201518060125562093a806013556203f4806014556101f46015556121a957005b68ff0000000000000000195f5160206132375f395f51905f5254165f5160206132375f395f51905f52557fc7f505b2f371ae2175ee4913f4499e1f2633a7b5936321eed1cdaeb6115181d2602060405160018152a1005b68ffffffffffffffffff191668010000000000000001175f5160206132375f395f51905f52558461214a565b63f92ee8a960e01b5f5260045ffd5b9050158561211d565b303b159150612115565b85915061210b565b346109b9575f3660031901126109b9576020601454604051908152f35b346109b95760a03660031901126109b95760043560243590811515918281036109b95760643560843567ffffffffffffffff81116109b9576122b9903690600401612c59565b919092845f52600660205260405f209060ff600f830154166122da81612d18565b80610d675750600d820154804211156126995750600e820154804211612687575061230533836130a8565b15612674575f868152600b6020908152604080832033845290915290205460ff1615612662575f868152600c6020908152604080832033845290915290205460ff1661264f5782158015612647575b6126385760405160208101908782523360601b60408201528860f81b60548201526044356055820152846075820152858760958301376123a76095828881015f838201520301601f198101835282612ca4565b5190205f878152600a6020908152604080832033845290915290205403612625575f868152600c6020908152604080832033808552908352818420805460ff19166001179055898452600d83528184208185528352818420879055898452600e8352818420908452909152902067ffffffffffffffff8511611d6757612437856124318354612d36565b83612eb0565b5f601f86116001146125945785937fa60282bdde809cec52607486f1c2f63694da6ea2ddfa1b4da561741b101622eb97959361250593612492876125219a600b965f91612589575b508160011b915f199060031b1c19161790565b90555b15612530575f8981526007602090815260408083203384529091529020805460ff19166001179055808201805460ff906124d0908216612eff565b1660ff198254161790555b016124ec60ff825460181c16612eff565b63ff00000082549160181b169063ff0000001916179055565b6040519687526020870152608060408701526080860191612f10565b924260608201528033940390a3005b885f52600760205260405f2060018060a01b0333165f5260205260405f20600260ff1982541617905561258482820161256f60ff825460081c16612eff565b61ff0082549160081b169061ff001916179055565b6124db565b90508a01358f61247f565b601f19861690825f5260205f20915f5b81811061260d57509361250593600b938997936125219a7fa60282bdde809cec52607486f1c2f63694da6ea2ddfa1b4da561741b101622eb9c9a98106125f4575b5050600187811b019055612495565b8901355f1960038a901b60f8161c191690558c806125e5565b9192602060018192868d0135815501940192016125a4565b8563018f31f560e51b5f5260045260245ffd5b635ab6e17d60e11b5f5260045ffd5b508315612354565b856328e95e2560e21b5f5260045260245ffd5b85627f6d1f60e51b5f5260045260245ffd5b85637ecbf15160e01b5f5260045260245ffd5b632f503aef60e21b5f5260045260245ffd5b600e8301549063072cdb0b60e21b5f5260045260245260445ffd5b346109b9575f3660031901126109b9576020601054604051908152f35b346109b9575f3660031901126109b9576020601554604051908152f35b346109b95760403660031901126109b9576004356001600160a01b0381168082036109b95761271b612fe7565b61272361301a565b156115cd576127359060243590613052565b60015f5160206132175f395f51905f5255005b346109b95760203660031901126109b957600435612764612fe7565b620151808110611404576020817f62efcc6635d756d1f9641477d266657e2376d3872bd60347d76001eccf0f2dab92601355604051908152a1005b346109b9575f3660031901126109b9576127b761301a565b335f52600460205260405f20600781019060ff825416156129f957335f52600f60205260405f20546129ea57600481019182548042106129d85750815492335f52600360205260405f20545f198101818111610a2a576002545f198101908111610a2a57808203612976575b505050600254918215612962575f925f190161283e81612e0e565b81549060018060a01b039060031b1b19169055600255338352600360205282604081205560ff19815416905581835581600384015555600561288260145442612ea3565b9101908082556040519081527f54951c8b024dea2e221124377a67ba24057224b861330ac4514b64117b02499d60203392a25f805460405163a9059cbb60e01b8152336004820152602481018590529160209183916044918391906001600160a01b03165af180156109ae576128fe915f916129435750612e5f565b5460405191825260208201527f4d48a3e28cae562588f5f2b5283421674b169a2e5a9f917130c4470d896654de60403392a260015f5160206132175f395f51905f5255005b61295c915060203d6020116107f8576107ea8183612ca4565b84610791565b634e487b7160e01b5f52603160045260245ffd5b6129a0916129866129c492612e0e565b905460039190911b1c6001600160a01b0316928391612e0e565b81546001600160a01b0393841660039290921b91821b9390911b1916919091179055565b5f52600360205260405f2055848080612823565b6317cc2cdd60e31b5f5260045260245ffd5b631322cbf760e31b5f5260045ffd5b63aba4733960e01b5f5260045ffd5b346109b95760403660031901126109b957600435612a24612c1f565b5f828152600d602090815260408083206001600160a01b039490941680845293825280832054948352600e825280832093835292905220612a6490612d6e565b906110bd6040519283928352604060208401526040830190612c35565b346109b95760203660031901126109b957600435612a9d612fe7565b6113888111612ad6576020817ed9efdff0cd3b9adb54c474e99847b2835e435eccd31a877925f546ec61ec7692601555604051908152a1005b63c6cc5d7f60e01b5f5260045ffd5b346109b95760403660031901126109b957612afe612c09565b602435612b09612fe7565b612b1161301a565b6001600160a01b0382169182156115cd57601654808311612bf357828092612b3e612b7d95602094612e3a565b6016555f805460405163a9059cbb60e01b81526001600160a01b0393841660048201526024810194909452929586939092169183919082906044820190565b03925af19081156109ae57612bbc6020927fd8f39c3f3706a5a71d31abb770a046679108e7136f677ee79ad5d7843b257122945f91612bd65750612e5f565b604051908152a260015f5160206132175f395f51905f5255005b612bed9150843d86116107f8576107ea8183612ca4565b86610791565b826325917e1160e01b5f5260045260245260445ffd5b600435906001600160a01b03821682036109b957565b602435906001600160a01b03821682036109b957565b805180835260209291819084018484015e5f828201840152601f01601f1916010190565b9181601f840112156109b95782359167ffffffffffffffff83116109b957602083818601950101116109b957565b610220810190811067ffffffffffffffff821117611d6757604052565b90601f8019910116810190811067ffffffffffffffff821117611d6757604052565b67ffffffffffffffff8111611d6757601f01601f191660200190565b929192612cee82612cc6565b91612cfc6040519384612ca4565b8294818452818301116109b9578281602093845f960137010152565b60031115612d2257565b634e487b7160e01b5f52602160045260245ffd5b90600182811c92168015612d64575b6020831014612d5057565b634e487b7160e01b5f52602260045260245ffd5b91607f1691612d45565b9060405191825f825492612d8184612d36565b8084529360018116908115612dec5750600114612da8575b50612da692500383612ca4565b565b90505f9291925260205f20905f915b818310612dd0575050906020612da6928201015f612d99565b6020919350806001915483858901015201910190918492612db7565b905060209250612da694915060ff191682840152151560051b8201015f612d99565b600254811015612e265760025f5260205f2001905f90565b634e487b7160e01b5f52603260045260245ffd5b91908203918211610a2a57565b908160209103126109b9575180151581036109b95790565b15612e6657565b60405162461bcd60e51b815260206004820152601560248201527415149554d5081d1c985b9cd9995c8819985a5b1959605a1b6044820152606490fd5b91908201809211610a2a57565b601f8211612ebd57505050565b5f5260205f20906020601f840160051c83019310612ef5575b601f0160051c01905b818110612eea575050565b5f8155600101612edf565b9091508190612ed6565b60ff1660ff8114610a2a5760010190565b908060209392818452848401375f828201840152601f01601f1916010190565b5f198114610a2a5760010190565b90612f4881612d18565b60ff80198354169116179055565b906003811015612e265760051b0190565b6003821015612e265701905f90565b6001600160a01b03168015612fd4575f5160206131d75f395f51905f5280546001600160a01b0319811683179091556001600160a01b03167f8be0079c531659141344cd1fd0a4f28419497f9722a3daafe3b4186f6b6457e05f80a3565b631e4fbdf760e01b5f525f60045260245ffd5b5f5160206131d75f395f51905f52546001600160a01b0316330361300757565b63118cdaa760e01b5f523360045260245ffd5b60025f5160206132175f395f51905f5254146130435760025f5160206132175f395f51905f5255565b633ee5aeb560e01b5f5260045ffd5b5f918291829182916001600160a01b03165af13d156130a3573d61307581612cc6565b906130836040519283612ca4565b81525f60203d92013e5b1561309457565b6312171d8360e31b5f5260045ffd5b61308d565b905f5b600381106130ba575050505f90565b6130c78160088501612f67565b905460039190911b1c6001600160a01b03908116908316146130eb576001016130ab565b505050600190565b67ffffffffffffffff8111611d675760051b60200190565b8051821015612e265760209160051b010190565b60ff5f5160206132375f395f51905f525460401c161561313b57565b631afcd79f60e31b5f5260045ffd5b905f8091602081519101845af480806131c3575b1561317e5750506040513d81523d5f602083013e60203d82010160405290565b156131a357639996b31560e01b5f9081526001600160a01b0391909116600452602490fd5b3d156131b4576040513d5f823e3d90fd5b63d6bda27560e01b5f5260045ffd5b503d15158061315e5750813b151561315e56fe9016d09d72d40fdae2fd8ceac6b6234c7706214fd39c1cd1e609a0528c199300360894a13ba1a3210667c828492db98dca3e2076cc3735a920a3ca505d382bbc9b779b17422d0df92223018b32b4d1fa46e071723d6817e2486d003becc55f00f0c57e16840df040f15088dc2f81fe391c3923bec73e23a9662efc9c229c6a00a2646970667358221220c1c60aabf46d2ac3c4a0800c9b88d5faae08b069b0342954a832ac30bfc3b39864736f6c634300081c0033f0c57e16840df040f15088dc2f81fe391c3923bec73e23a9662efc9c229c6a00",
  "linkReferences": {},
  "deployedLinkReferences": {}
}