{
  "_format": "hh-sol-artifact-1",
  "contractName": "MarketEscrow",
  "sourceName": "contracts/MarketEscrow.sol",
  "abi": [
    {
      "inputs": [],
      "stateMutability": "nonpayable",
      "type": "constructor"
    },
    {
      "inputs": [
        {
          "internalType": "address",
          "name": "target",
          "type": "address"
        }
      ],
      "name": "AddressEmptyCode",
      "type": "error"
    },
    {
      "inputs": [
        {
          "internalType": "address",
          "name": "implementation",
          "type": "address"
        }
      ],
      "name": "ERC1967InvalidImplementation",
      "type": "error"
    },
    {
      "inputs": [],
      "name": "ERC1967NonPayable",
      "type": "error"
    },
    {
      "inputs": [],
      "name": "EnforcedPause",
      "type": "error"
    },
    {
      "inputs": [],
      "name": "ExpectedPause",
      "type": "error"
    },
    {
      "inputs": [],
      "name": "FailedCall",
      "type": "error"
    },
    {
      "inputs": [],
      "name": "FeeTooHigh",
      "type": "error"
    },
    {
      "inputs": [
        {
          "internalType": "uint256",
          "name": "required",
          "type": "uint256"
        },
        {
          "internalType": "uint256",
          "name": "sent",
          "type": "uint256"
        }
      ],
      "name": "IncorrectPayment",
      "type": "error"
    },
    {
      "inputs": [
        {
          "internalType": "uint256",
          "name": "requested",
          "type": "uint256"
        },
        {
          "internalType": "uint256",
          "name": "available",
          "type": "uint256"
        }
      ],
      "name": "InsufficientFees",
      "type": "error"
    },
    {
      "inputs": [],
      "name": "InvalidAddress",
      "type": "error"
    },
    {
      "inputs": [],
      "name": "InvalidDuration",
      "type": "error"
    },
    {
      "inputs": [],
      "name": "InvalidEvidence",
      "type": "error"
    },
    {
      "inputs": [],
      "name": "InvalidInitialization",
      "type": "error"
    },
    {
      "inputs": [],
      "name": "InvalidPrice",
      "type": "error"
    },
    {
      "inputs": [],
      "name": "InvalidTokenURI",
      "type": "error"
    },
    {
      "inputs": [],
      "name": "NotInitializing",
      "type": "error"
    },
    {
      "inputs": [
        {
          "internalType": "uint256",
          "name": "listingId",
          "type": "uint256"
        }
      ],
      "name": "NotParticipant",
      "type": "error"
    },
    {
      "inputs": [
        {
          "internalType": "uint256",
          "name": "listingId",
          "type": "uint256"
        }
      ],
      "name": "NotRedeemer",
      "type": "error"
    },
    {
      "inputs": [
        {
          "internalType": "uint256",
          "name": "listingId",
          "type": "uint256"
        }
      ],
      "name": "NotSeller",
      "type": "error"
    },
    {
      "inputs": [],
      "name": "OnlyJuryDAO",
      "type": "error"
    },
    {
      "inputs": [
        {
          "internalType": "address",
          "name": "owner",
          "type": "address"
        }
      ],
      "name": "OwnableInvalidOwner",
      "type": "error"
    },
    {
      "inputs": [
        {
          "internalType": "address",
          "name": "account",
          "type": "address"
        }
      ],
      "name": "OwnableUnauthorizedAccount",
      "type": "error"
    },
    {
      "inputs": [
        {
          "internalType": "uint256",
          "name": "deadline",
          "type": "uint256"
        }
      ],
      "name": "RedeemWindowExpired",
      "type": "error"
    },
    {
      "inputs": [
        {
          "internalType": "uint256",
          "name": "deadline",
          "type": "uint256"
        }
      ],
      "name": "RedeemWindowStillOpen",
      "type": "error"
    },
    {
      "inputs": [],
      "name": "ReentrancyGuardReentrantCall",
      "type": "error"
    },
    {
      "inputs": [],
      "name": "SelfPurchase",
      "type": "error"
    },
    {
      "inputs": [],
      "name": "TransferFailed",
      "type": "error"
    },
    {
      "inputs": [],
      "name": "UUPSUnauthorizedCallContext",
      "type": "error"
    },
    {
      "inputs": [
        {
          "internalType": "bytes32",
          "name": "slot",
          "type": "bytes32"
        }
      ],
      "name": "UUPSUnsupportedProxiableUUID",
      "type": "error"
    },
    {
      "inputs": [
        {
          "internalType": "enum ListingStatus",
          "name": "current",
          "type": "uint8"
        }
      ],
      "name": "WrongStatus",
      "type": "error"
    },
    {
      "anonymous": false,
      "inputs": [
        {
          "indexed": false,
          "internalType": "uint256",
          "name": "newBps",
          "type": "uint256"
        }
      ],
      "name": "CollateralBpsUpdated",
      "type": "event"
    },
    {
      "anonymous": false,
      "inputs": [
        {
          "indexed": true,
          "internalType": "uint256",
          "name": "listingId",
          "type": "uint256"
        },
        {
          "indexed": false,
          "internalType": "bytes32",
          "name": "evidenceHash",
          "type": "bytes32"
        },
        {
          "indexed": false,
          "internalType": "string",
          "name": "evidenceURI",
          "type": "string"
        },
        {
          "indexed": false,
          "internalType": "uint256",
          "name": "payout",
          "type": "uint256"
        }
      ],
      "name": "DeliveryConfirmed",
      "type": "event"
    },
    {
      "anonymous": false,
      "inputs": [
        {
          "indexed": false,
          "internalType": "uint256",
          "name": "newBps",
          "type": "uint256"
        }
      ],
      "name": "DisputeFeeBpsUpdated",
      "type": "event"
    },
    {
      "anonymous": false,
      "inputs": [
        {
          "indexed": true,
          "internalType": "uint256",
          "name": "listingId",
          "type": "uint256"
        },
        {
          "indexed": true,
          "internalType": "address",
          "name": "challenger",
          "type": "address"
        },
        {
          "indexed": false,
          "internalType": "uint256",
          "name": "feeAmount",
          "type": "uint256"
        },
        {
          "indexed": false,
          "internalType": "bytes32",
          "name": "evidenceHash",
          "type": "bytes32"
        },
        {
          "indexed": false,
          "internalType": "string",
          "name": "evidenceURI",
          "type": "string"
        }
      ],
      "name": "DisputeOpened",
      "type": "event"
    },
    {
      "anonymous": false,
      "inputs": [
        {
          "indexed": true,
          "internalType": "address",
          "name": "to",
          "type": "address"
        },
        {
          "indexed": false,
          "internalType": "uint256",
          "name": "amount",
          "type": "uint256"
        }
      ],
      "name": "FeesWithdrawn",
      "type": "event"
    },
    {
      "anonymous": false,
      "inputs": [
        {
          "indexed": false,
          "internalType": "uint64",
          "name": "version",
          "type": "uint64"
        }
      ],
      "name": "Initialized",
      "type": "event"
    },
    {
      "anonymous": false,
      "inputs": [
        {
          "indexed": true,
          "internalType": "uint256",
          "name": "listingId",
          "type": "uint256"
        },
        {
          "indexed": true,
          "internalType": "address",
          "name": "buyer",
          "type": "address"
        },
        {
          "indexed": false,
          "internalType": "uint256",
          "name": "redeemDeadline",
          "type": "uint256"
        }
      ],
      "name": "ItemPurchased",
      "type": "event"
    },
    {
      "anonymous": false,
      "inputs": [
        {
          "indexed": true,
          "internalType": "uint256",
          "name": "listingId",
          "type": "uint256"
        },
        {
          "indexed": true,
          "internalType": "address",
          "name": "redeemer",
          "type": "address"
        },
        {
          "indexed": false,
          "internalType": "bytes32",
          "name": "evidenceHash",
          "type": "bytes32"
        },
        {
          "indexed": false,
          "internalType": "string",
          "name": "evidenceURI",
          "type": "string"
        }
      ],
      "name": "ItemRedeemed",
      "type": "event"
    },
    {
      "anonymous": false,
      "inputs": [
        {
          "indexed": true,
          "internalType": "uint256",
          "name": "listingId",
          "type": "uint256"
        }
      ],
      "name": "ListingCancelled",
      "type": "event"
    },
    {
      "anonymous": false,
      "inputs": [
        {
          "indexed": true,
          "internalType": "uint256",
          "name": "listingId",
          "type": "uint256"
        },
        {
          "indexed": true,
          "internalType": "uint256",
          "name": "tokenId",
          "type": "uint256"
        },
        {
          "indexed": true,
          "internalType": "address",
          "name": "seller",
          "type": "address"
        },
        {
          "indexed": false,
          "internalType": "uint256",
          "name": "price",
          "type": "uint256"
        },
        {
          "indexed": false,
          "internalType": "uint256",
          "name": "collateral",
          "type": "uint256"
        },
        {
          "indexed": false,
          "internalType": "uint256",
          "name": "redeemDuration",
          "type": "uint256"
        }
      ],
      "name": "ListingCreated",
      "type": "event"
    },
    {
      "anonymous": false,
      "inputs": [
        {
          "indexed": true,
          "internalType": "uint256",
          "name": "listingId",
          "type": "uint256"
        },
        {
          "indexed": false,
          "internalType": "uint256",
          "name": "sellerPayout",
          "type": "uint256"
        }
      ],
      "name": "ListingExpired",
      "type": "event"
    },
    {
      "anonymous": false,
      "inputs": [
        {
          "indexed": true,
          "internalType": "address",
          "name": "previousOwner",
          "type": "address"
        },
        {
          "indexed": true,
          "internalType": "address",
          "name": "newOwner",
          "type": "address"
        }
      ],
      "name": "OwnershipTransferred",
      "type": "event"
    },
    {
      "anonymous": false,
      "inputs": [
        {
          "indexed": false,
          "internalType": "address",
          "name": "account",
          "type": "address"
        }
      ],
      "name": "Paused",
      "type": "event"
    },
    {
      "anonymous": false,
      "inputs": [
        {
          "indexed": false,
          "internalType": "uint256",
          "name": "newBps",
          "type": "uint256"
        }
      ],
      "name": "PlatformFeeBpsUpdated",
      "type": "event"
    },
    {
      "anonymous": false,
      "inputs": [
        {
          "indexed": true,
          "internalType": "uint256",
          "name": "listingId",
          "type": "uint256"
        },
        {
          "indexed": false,
          "internalType": "bytes32",
          "name": "evidenceHash",
          "type": "bytes32"
        },
        {
          "indexed": false,
          "internalType": "string",
          "name": "evidenceURI",
          "type": "string"
        }
      ],
      "name": "ShippingConfirmed",
      "type": "event"
    },
    {
      "anonymous": false,
      "inputs": [
        {
          "indexed": false,
          "internalType": "address",
          "name": "account",
          "type": "address"
        }
      ],
      "name": "Unpaused",
      "type": "event"
    },
    {
      "anonymous": false,
      "inputs": [
        {
          "indexed": true,
          "internalType": "address",
          "name": "implementation",
          "type": "address"
        }
      ],
      "name": "Upgraded",
      "type": "event"
    },
    {
      "anonymous": false,
      "inputs": [
        {
          "indexed": true,
          "internalType": "uint256",
          "name": "listingId",
          "type": "uint256"
        },
        {
          "indexed": false,
          "internalType": "bool",
          "name": "buyerWins",
          "type": "bool"
        }
      ],
      "name": "VerdictExecuted",
      "type": "event"
    },
    {
      "inputs": [],
      "name": "UPGRADE_INTERFACE_VERSION",
      "outputs": [
        {
          "internalType": "string",
          "name": "",
          "type": "string"
        }
      ],
      "stateMutability": "view",
      "type": "function"
    },
    {
      "inputs": [],
      "name": "accumulatedDisputeFees",
      "outputs": [
        {
          "internalType": "uint256",
          "name": "",
          "type": "uint256"
        }
      ],
      "stateMutability": "view",
      "type": "function"
    },
    {
      "inputs": [],
      "name": "accumulatedFees",
      "outputs": [
        {
          "internalType": "uint256",
          "name": "",
          "type": "uint256"
        }
      ],
      "stateMutability": "view",
      "type": "function"
    },
    {
      "inputs": [
        {
          "internalType": "uint256",
          "name": "listingId",
          "type": "uint256"
        }
      ],
      "name": "buyItem",
      "outputs": [],
      "stateMutability": "payable",
      "type": "function"
    },
    {
      "inputs": [
        {
          "internalType": "uint256",
          "name": "price",
          "type": "uint256"
        }
      ],
      "name": "calcCollateral",
      "outputs": [
        {
          "internalType": "uint256",
          "name": "",
          "type": "uint256"
        }
      ],
      "stateMutability": "view",
      "type": "function"
    },
    {
      "inputs": [
        {
          "internalType": "uint256",
          "name": "price",
          "type": "uint256"
        }
      ],
      "name": "calcDisputeFee",
      "outputs": [
        {
          "internalType": "uint256",
          "name": "",
          "type": "uint256"
        }
      ],
      "stateMutability": "view",
      "type": "function"
    },
    {
      "inputs": [
        {
          "internalType": "uint256",
          "name": "listingId",
          "type": "uint256"
        }
      ],
      "name": "cancelListing",
      "outputs": [],
      "stateMutability": "nonpayable",
      "type": "function"
    },
    {
      "inputs": [],
      "name": "collateralBps",
      "outputs": [
        {
          "internalType": "uint256",
          "name": "",
          "type": "uint256"
        }
      ],
      "stateMutability": "view",
      "type": "function"
    },
    {
      "inputs": [
        {
          "internalType": "uint256",
          "name": "listingId",
          "type": "uint256"
        },
        {
          "internalType": "bytes32",
          "name": "evidenceHash",
          "type": "bytes32"
        },
        {
          "internalType": "string",
          "name": "evidenceURI",
          "type": "string"
        }
      ],
      "name": "confirmDelivered",
      "outputs": [],
      "stateMutability": "nonpayable",
      "type": "function"
    },
    {
      "inputs": [
        {
          "internalType": "uint256",
          "name": "listingId",
          "type": "uint256"
        },
        {
          "internalType": "bytes32",
          "name": "evidenceHash",
          "type": "bytes32"
        },
        {
          "internalType": "string",
          "name": "evidenceURI",
          "type": "string"
        }
      ],
      "name": "confirmShipped",
      "outputs": [],
      "stateMutability": "nonpayable",
      "type": "function"
    },
    {
      "inputs": [],
      "name": "disputeFeeBps",
      "outputs": [
        {
          "internalType": "uint256",
          "name": "",
          "type": "uint256"
        }
      ],
      "stateMutability": "view",
      "type": "function"
    },
    {
      "inputs": [
        {
          "internalType": "uint256",
          "name": "listingId",
          "type": "uint256"
        },
        {
          "internalType": "bool",
          "name": "buyerWins",
          "type": "bool"
        }
      ],
      "name": "executeVerdict",
      "outputs": [],
      "stateMutability": "nonpayable",
      "type": "function"
    },
    {
      "inputs": [
        {
          "internalType": "uint256",
          "name": "listingId",
          "type": "uint256"
        }
      ],
      "name": "expireRedeem",
      "outputs": [],
      "stateMutability": "nonpayable",
      "type": "function"
    },
    {
      "inputs": [
        {
          "internalType": "uint256",
          "name": "listingId",
          "type": "uint256"
        }
      ],
      "name": "getListing",
      "outputs": [
        {
          "components": [
            {
              "internalType": "uint256",
              "name": "id",
              "type": "uint256"
            },
            {
              "internalType": "uint256",
              "name": "tokenId",
              "type": "uint256"
            },
            {
              "internalType": "address payable",
              "name": "seller",
              "type": "address"
            },
            {
              "internalType": "address payable",
              "name": "buyer",
              "type": "address"
            },
            {
              "internalType": "address payable",
              "name": "redeemer",
              "type": "address"
            },
            {
              "internalType": "address payable",
              "name": "challenger",
              "type": "address"
            },
            {
              "internalType": "uint256",
              "name": "price",
              "type": "uint256"
            },
            {
              "internalType": "uint256",
              "name": "collateral",
              "type": "uint256"
            },
            {
              "internalType": "uint256",
              "name": "redeemDuration",
              "type": "uint256"
            },
            {
              "internalType": "uint256",
              "name": "listedAt",
              "type": "uint256"
            },
            {
              "internalType": "uint256",
              "name": "soldAt",
              "type": "uint256"
            },
            {
              "internalType": "uint256",
              "name": "redeemDeadline",
              "type": "uint256"
            },
            {
              "internalType": "uint256",
              "name": "redeemedAt",
              "type": "uint256"
            },
            {
              "internalType": "uint256",
              "name": "shippedAt",
              "type": "uint256"
            },
            {
              "internalType": "uint256",
              "name": "deliveredAt",
              "type": "uint256"
            },
            {
              "internalType": "uint256",
              "name": "disputeOpenedAt",
              "type": "uint256"
            },
            {
              "internalType": "uint256",
              "name": "disputeFeeAmount",
              "type": "uint256"
            },
            {
              "internalType": "bytes32",
              "name": "redeemEvidenceHash",
              "type": "bytes32"
            },
            {
              "internalType": "string",
              "name": "redeemEvidenceURI",
              "type": "string"
            },
            {
              "internalType": "bytes32",
              "name": "shippingEvidenceHash",
              "type": "bytes32"
            },
            {
              "internalType": "string",
              "name": "shippingEvidenceURI",
              "type": "string"
            },
            {
              "internalType": "bytes32",
              "name": "deliveryEvidenceHash",
              "type": "bytes32"
            },
            {
              "internalType": "string",
              "name": "deliveryEvidenceURI",
              "type": "string"
            },
            {
              "internalType": "bytes32",
              "name": "disputeEvidenceHash",
              "type": "bytes32"
            },
            {
              "internalType": "string",
              "name": "disputeEvidenceURI",
              "type": "string"
            },
            {
              "internalType": "enum ListingStatus",
              "name": "status",
              "type": "uint8"
            }
          ],
          "internalType": "struct Listing",
          "name": "",
          "type": "tuple"
        }
      ],
      "stateMutability": "view",
      "type": "function"
    },
    {
      "inputs": [],
      "name": "getListingCount",
      "outputs": [
        {
          "internalType": "uint256",
          "name": "",
          "type": "uint256"
        }
      ],
      "stateMutability": "view",
      "type": "function"
    },
    {
      "inputs": [
        {
          "internalType": "address",
          "name": "_itemNFT",
          "type": "address"
        },
        {
          "internalType": "address",
          "name": "_juryDAO",
          "type": "address"
        },
        {
          "internalType": "address",
          "name": "initialOwner",
          "type": "address"
        }
      ],
      "name": "initialize",
      "outputs": [],
      "stateMutability": "nonpayable",
      "type": "function"
    },
    {
      "inputs": [],
      "name": "itemNFT",
      "outputs": [
        {
          "internalType": "contract IItemNFT",
          "name": "",
          "type": "address"
        }
      ],
      "stateMutability": "view",
      "type": "function"
    },
    {
      "inputs": [],
      "name": "juryDAO",
      "outputs": [
        {
          "internalType": "contract IJuryDAO",
          "name": "",
          "type": "address"
        }
      ],
      "stateMutability": "view",
      "type": "function"
    },
    {
      "inputs": [
        {
          "internalType": "string",
          "name": "tokenURI",
          "type": "string"
        },
        {
          "internalType": "uint256",
          "name": "price",
          "type": "uint256"
        },
        {
          "internalType": "uint256",
          "name": "redeemDuration",
          "type": "uint256"
        }
      ],
      "name": "listItem",
      "outputs": [
        {
          "internalType": "uint256",
          "name": "listingId",
          "type": "uint256"
        }
      ],
      "stateMutability": "payable",
      "type": "function"
    },
    {
      "inputs": [
        {
          "internalType": "uint256",
          "name": "",
          "type": "uint256"
        }
      ],
      "name": "listingByToken",
      "outputs": [
        {
          "internalType": "uint256",
          "name": "",
          "type": "uint256"
        }
      ],
      "stateMutability": "view",
      "type": "function"
    },
    {
      "inputs": [
        {
          "internalType": "uint256",
          "name": "",
          "type": "uint256"
        }
      ],
      "name": "listings",
      "outputs": [
        {
          "internalType": "uint256",
          "name": "id",
          "type": "uint256"
        },
        {
          "internalType": "uint256",
          "name": "tokenId",
          "type": "uint256"
        },
        {
          "internalType": "address payable",
          "name": "seller",
          "type": "address"
        },
        {
          "internalType": "address payable",
          "name": "buyer",
          "type": "address"
        },
        {
          "internalType": "address payable",
          "name": "redeemer",
          "type": "address"
        },
        {
          "internalType": "address payable",
          "name": "challenger",
          "type": "address"
        },
        {
          "internalType": "uint256",
          "name": "price",
          "type": "uint256"
        },
        {
          "internalType": "uint256",
          "name": "collateral",
          "type": "uint256"
        },
        {
          "internalType": "uint256",
          "name": "redeemDuration",
          "type": "uint256"
        },
        {
          "internalType": "uint256",
          "name": "listedAt",
          "type": "uint256"
        },
        {
          "internalType": "uint256",
          "name": "soldAt",
          "type": "uint256"
        },
        {
          "internalType": "uint256",
          "name": "redeemDeadline",
          "type": "uint256"
        },
        {
          "internalType": "uint256",
          "name": "redeemedAt",
          "type": "uint256"
        },
        {
          "internalType": "uint256",
          "name": "shippedAt",
          "type": "uint256"
        },
        {
          "internalType": "uint256",
          "name": "deliveredAt",
          "type": "uint256"
        },
        {
          "internalType": "uint256",
          "name": "disputeOpenedAt",
          "type": "uint256"
        },
        {
          "internalType": "uint256",
          "name": "disputeFeeAmount",
          "type": "uint256"
        },
        {
          "internalType": "bytes32",
          "name": "redeemEvidenceHash",
          "type": "bytes32"
        },
        {
          "internalType": "string",
          "name": "redeemEvidenceURI",
          "type": "string"
        },
        {
          "internalType": "bytes32",
          "name": "shippingEvidenceHash",
          "type": "bytes32"
        },
        {
          "internalType": "string",
          "name": "shippingEvidenceURI",
          "type": "string"
        },
        {
          "internalType": "bytes32",
          "name": "deliveryEvidenceHash",
          "type": "bytes32"
        },
        {
          "internalType": "string",
          "name": "deliveryEvidenceURI",
          "type": "string"
        },
        {
          "internalType": "bytes32",
          "name": "disputeEvidenceHash",
          "type": "bytes32"
        },
        {
          "internalType": "string",
          "name": "disputeEvidenceURI",
          "type": "string"
        },
        {
          "internalType": "enum ListingStatus",
          "name": "status",
          "type": "uint8"
        }
      ],
      "stateMutability": "view",
      "type": "function"
    },
    {
      "inputs": [],
      "name": "nextListingId",
      "outputs": [
        {
          "internalType": "uint256",
          "name": "",
          "type": "uint256"
        }
      ],
      "stateMutability": "view",
      "type": "function"
    },
    {
      "inputs": [],
      "name": "owner",
      "outputs": [
        {
          "internalType": "address",
          "name": "",
          "type": "address"
        }
      ],
      "stateMutability": "view",
      "type": "function"
    },
    {
      "inputs": [],
      "name": "pause",
      "outputs": [],
      "stateMutability": "nonpayable",
      "type": "function"
    },
    {
      "inputs": [],
      "name": "paused",
      "outputs": [
        {
          "internalType": "bool",
          "name": "",
          "type": "bool"
        }
      ],
      "stateMutability": "view",
      "type": "function"
    },
    {
      "inputs": [],
      "name": "platformFeeBps",
      "outputs": [
        {
          "internalType": "uint256",
          "name": "",
          "type": "uint256"
        }
      ],
      "stateMutability": "view",
      "type": "function"
    },
    {
      "inputs": [],
      "name": "proxiableUUID",
      "outputs": [
        {
          "internalType": "bytes32",
          "name": "",
          "type": "bytes32"
        }
      ],
      "stateMutability": "view",
      "type": "function"
    },
    {
      "inputs": [
        {
          "internalType": "uint256",
          "name": "listingId",
          "type": "uint256"
        },
        {
          "internalType": "bytes32",
          "name": "evidenceHash",
          "type": "bytes32"
        },
        {
          "internalType": "string",
          "name": "evidenceURI",
          "type": "string"
        }
      ],
      "name": "raiseDispute",
      "outputs": [],
      "stateMutability": "payable",
      "type": "function"
    },
    {
      "inputs": [
        {
          "internalType": "uint256",
          "name": "listingId",
          "type": "uint256"
        },
        {
          "internalType": "bytes32",
          "name": "evidenceHash",
          "type": "bytes32"
        },
        {
          "internalType": "string",
          "name": "evidenceURI",
          "type": "string"
        }
      ],
      "name": "redeemItem",
      "outputs": [],
      "stateMutability": "nonpayable",
      "type": "function"
    },
    {
      "inputs": [],
      "name": "renounceOwnership",
      "outputs": [],
      "stateMutability": "nonpayable",
      "type": "function"
    },
    {
      "inputs": [
        {
          "internalType": "uint256",
          "name": "bps",
          "type": "uint256"
        }
      ],
      "name": "setCollateralBps",
      "outputs": [],
      "stateMutability": "nonpayable",
      "type": "function"
    },
    {
      "inputs": [
        {
          "internalType": "uint256",
          "name": "bps",
          "type": "uint256"
        }
      ],
      "name": "setDisputeFeeBps",
      "outputs": [],
      "stateMutability": "nonpayable",
      "type": "function"
    },
    {
      "inputs": [
        {
          "internalType": "uint256",
          "name": "bps",
          "type": "uint256"
        }
      ],
      "name": "setPlatformFeeBps",
      "outputs": [],
      "stateMutability": "nonpayable",
      "type": "function"
    },
    {
      "inputs": [
        {
          "internalType": "address",
          "name": "newOwner",
          "type": "address"
        }
      ],
      "name": "transferOwnership",
      "outputs": [],
      "stateMutability": "nonpayable",
      "type": "function"
    },
    {
      "inputs": [],
      "name": "unpause",
      "outputs": [],
      "stateMutability": "nonpayable",
      "type": "function"
    },
    {
      "inputs": [
        {
          "internalType": "address",
          "name": "newImplementation",
          "type": "address"
        },
        {
          "internalType": "bytes",
          "name": "data",
          "type": "bytes"
        }
      ],
      "name": "upgradeToAndCall",
      "outputs": [],
      "stateMutability": "payable",
      "type": "function"
    },
    {
      "inputs": [
        {
          "internalType": "address payable",
          "name": "to",
          "type": "address"
        },
        {
          "internalType": "uint256",
          "name": "amount",
          "type": "uint256"
        }
      ],
      "name": "withdrawFees",
      "outputs": [],
      "stateMutability": "nonpayable",
      "type": "function"
    }
  ],
  "bytecode": "0x60a080604052346100e65760017f9b779b17422d0df92223018b32b4d1fa46e071723d6817e2486d003becc55f0055306080525f5160206131bf5f395f51905f525460ff8160401c166100d7576002600160401b03196001600160401b03821601610084575b6040516130d490816100eb8239608051818181611e580152611f430152f35b6001600160401b0319166001600160401b039081175f5160206131bf5f395f51905f525581527fc7f505b2f371ae2175ee4913f4499e1f2633a7b5936321eed1cdaeb6115181d290602090a15f80610065565b63f92ee8a960e01b5f5260045ffd5b5f80fdfe610260806040526004361015610013575f80fd5b5f905f3560e01c908163107a274a146126de5750806314ecae36146126c15780631d3daca01461265c57806322dcd13e1461263f5780632adb88fa1461249b578063305a67a81461235c57806337b8db1a146121575780633f4ba83a146120d75780634f1ef28614611eca5780634fece27414611eac57806352d1902d14611e4557806357d1f91014611e1e578063587f5ed714611e005780635c33a7e414611dd65780635c975abb14611da75780635e30439514611d8257806364214e4614611a7f578063709a3c3514611a61578063715018a6146119f85780637facb2a0146119c95780638456cb591461195657806387ed92d71461114e5780638da5cb5b1461192157806395907f371461163257806399e1c089146113e3578063a4ecc123146111ba578063a7ce0d191461116c578063aaccf1ec1461114e578063ad3b1b4714611041578063ad3cb1cc14610ff4578063c0c53b8b14610e07578063c580c94214610da0578063d54956df14610d77578063de74e57b14610b05578063e7fb74c714610952578063f1766279146101e55763f2fde38b146101b6575f80fd5b346101e25760203660031901126101e2576101df6101d2612adb565b6101da612e01565b612d90565b80f35b80fd5b5060603660031901126101e2576004356001600160401b03811161094e57610211903690600401612b5d565b9061021a612e34565b610222612f20565b60243515610940578115610931576044351561092257612710610249600854602435612c98565b049081340361090a57600254925f1984146108f65760018401600255845460405163ba7aef4360e01b8152336004820152606060248201529260209284926001600160a01b0316918391899183916102a691606484019190612d28565b89604483015203925af19081156108eb5784916108b5575b50604051936102cc85612af1565b8385528160208601523360408601528060608601528060808601528060a086015260243560c08601528260e086015260443561010086015242610120860152806101408601528061016086015280610180860152806101a0860152806101c0860152806101e086015280610200860152806102208601526020946040516103538782612b21565b828152610240820152816102608201526040516103708782612b21565b828152610280820152816102a082015260405161038d8782612b21565b8281526102c0820152816102e08201526040516103aa8782612b21565b8281526103008201526103208101829052848252600380875260408084208351815560208401516001820155908301516002820180546001600160a01b03199081166001600160a01b0393841617909155606085015193830180548216948316949094179093556080840151600483018054851691831691909117905560a084015160058301805490941691161790915560c0820151600682015560e0820151600782015561010082015160088201556101208201516009820155610140820151600a820155610160820151600b820155610180820151600c8201556101a0820151600d8201556101c0820151600e8201556101e0820151600f820155610200820151601082015561022082015160118201556102408201518051906001600160401b0382116108a1576104ee826104e56012860154612bc0565b60128601612cd9565b8890601f83116001146108395761051c92918691836106ed575b50508160011b915f199060031b1c19161790565b60128201555b6102608201516013820155601481016102808301518051906001600160401b0382116107615761055c826105568554612bc0565b85612cd9565b8990601f83116001146107d75761058992918791836106ed5750508160011b915f199060031b1c19161790565b90555b6102a08201516015820155601681016102c08301518051906001600160401b038211610761576105c0826105568554612bc0565b8990601f8311600114610775576105ed92918791836106ed5750508160011b915f199060031b1c19161790565b90555b6102e08201516017820155601881016103008301518051906001600160401b03821161076157610624826105568554612bc0565b8990601f83116001146106f85782610320959360199593610659938a926106ed5750508160011b915f199060031b1c19161790565b90555b0191015160098110156106d95791604091869360ff80198354169116179055838152600487522055604051916024358352848301526044356040830152827fd968a91d52e5a29d0c78a691dd966f3c5b5a67f602f9daa9d7a3bea03fb905cd60603394a460015f51602061305f5f395f51905f5255604051908152f35b634e487b7160e01b83526021600452602483fd5b015190505f80610508565b8387528a87209190601f198416885b8d82821061074b57505092600192859261032098966019989610610733575b505050811b01905561065c565b01515f1960f88460031b161c191690555f8080610726565b6001859682939686015181550195019301610707565b634e487b7160e01b86526041600452602486fd5b8387528a87209190601f198416885b8d8282106107c15750509084600195949392106107a9575b505050811b0190556105f0565b01515f1960f88460031b161c191690555f808061079c565b6001859682939686015181550195019301610784565b8387528a87209190601f198416885b8d82821061082357505090846001959493921061080b575b505050811b01905561058c565b01515f1960f88460031b161c191690555f80806107fe565b60018596829396860151815501950193016107e6565b6012840186528986209190601f198416875b8c82821061088b575050908460019594939210610873575b505050811b016012820155610522565b01515f1960f88460031b161c191690555f8080610863565b600185968293968601518155019501930161084b565b634e487b7160e01b85526041600452602485fd5b90506020813d6020116108e3575b816108d060209383612b21565b810103126108df57515f6102be565b5f80fd5b3d91506108c3565b6040513d86823e3d90fd5b634e487b7160e01b85526011600452602485fd5b630d35e92160e01b8452600482905234602452604484fd5b637616640160e01b8352600483fd5b6313f04adb60e01b8352600483fd5b62bfc92160e01b8352600483fd5b5080fd5b5060203660031901126101e25760043561096a612e34565b610972612f20565b808252600360205260ff60196040842001541660098110156106d957610ada5780825260036020526040822060028101546001600160a01b03163314610acb576006810154803403610ab557506003810180546001600160a01b0319163317905542600a8201819055600882015484916109ec9190612ccc565b600b830190815560198301805460ff19166001908117909155825493015490926001600160a01b031690813b15610aa6578291604483926040519485938492630254189760e01b845260048401523360248401525af18015610aaa57610a91575b505054906040519182527f78a0660bbda86d17037943644187f6f1f73f2f20a3240bf4cf4a56c2a96bcf8460203393a360015f51602061305f5f395f51905f525580f35b81610a9b91612b21565b610aa657825f610a4d565b8280fd5b6040513d84823e3d90fd5b630d35e92160e01b845260045234602452604483fd5b632844e8ff60e21b8352600483fd5b815260036020526040812060190154630d64047360e21b825260249190610b039060ff16612ac0565bfd5b50346101e25760203660031901126101e257600480358252600360208190526040909220610240819052805460018201546101205260028201546001600160a01b0390811661014052938201548416610180529181015460058201546006830154600784015460088501546009860154600a870154600b880154600c890154600d8a0154600e8b0154600f8c015460108d015460805260118d015460a0529d909c919b929a93999498959795948116931691610bc390601201612bf8565b60e052601361024051015461022052610be160146102405101612bf8565b6102005260156102405101546101e052610c0060166102405101612bf8565b6101c05260176102405101546101a052610c1f60186102405101612bf8565b6101605260ff6019610240510154166101005260405160c05260c0515261012051602060c051015261014051604060c051015261018051606060c0510152608060c051015260a060c051015260c08051015260e060c051015261010060c051015261012060c051015261014060c051015261016060c051015261018060c05101526101a060c05101526101c060c05101526101e060c051015260805161020060c051015260a05161022060c051015261034061024060c0510152610d5a610d38610d16610cf461034060c0510160e051612a9c565b6102205161026060c051015260c051810361028060c051015261020051612a9c565b6101e0516102a060c051015260c05181036102c060c05101526101c051612a9c565b6101a0516102e060c051015260c051810361030060c051015261016051612a9c565b610d6d61032060c0510161010051612ace565b60c051900360c051f35b50346101e257806003193601126101e2576001546040516001600160a01b039091168152602090f35b50346101e25760203660031901126101e257600435610dbd612e01565b6101f48111610df8576020817f2005cf0c8e2796e03eaf969665308efaab9c828b99de8930ae34ca6843bfcbef92600755604051908152a180f35b63cd4e616760e01b8252600482fd5b50346101e25760603660031901126101e257610e21612adb565b6024356001600160a01b03811690819003610aa657604435916001600160a01b0383168303610ff0575f51602061307f5f395f51905f52549260ff8460401c1615936001600160401b03811680159081610fe8575b6001149081610fde575b159081610fd5575b50610fc65767ffffffffffffffff1981166001175f51602061307f5f395f51905f5255610ec7919085610f9a575b50610ebf612f47565b6101da612f47565b610ecf612f47565b6001600160a01b031680158015610f92575b610f83576bffffffffffffffffffffffff60a01b8454161783556bffffffffffffffffffffffff60a01b600154161760015560c86007556113886008556101f4600955610f2b5780f35b68ff0000000000000000195f51602061307f5f395f51905f5254165f51602061307f5f395f51905f52557fc7f505b2f371ae2175ee4913f4499e1f2633a7b5936321eed1cdaeb6115181d2602060405160018152a180f35b63e6c4247b60e01b8452600484fd5b508115610ee1565b68ffffffffffffffffff191668010000000000000001175f51602061307f5f395f51905f52555f610eb6565b63f92ee8a960e01b8652600486fd5b9050155f610e88565b303b159150610e80565b869150610e76565b8380fd5b50346101e257806003193601126101e2575061103d604051611017604082612b21565b60058152640352e302e360dc1b6020820152604051918291602083526020830190612a9c565b0390f35b50346101e25760403660031901126101e2576004356001600160a01b03811690818103610aa65760243590611074612e01565b61107c612e34565b8215610f83576005546006546110928183612ccc565b8085116111375750836020937fc0819c13be868895eb93e40eaceb96de976442fa1d404e5c55f14bb65a8c489a95936110e26110ef948085115f1461113057805b818061111d575b505084612cbf565b8061110a575b5050612eca565b604051908152a260015f51602061305f5f395f51905f525580f35b61111391612cbf565b6005555f806110e8565b61112691612cbf565b6006555f816110da565b84906110d3565b6311e9ebaf60e31b87526004859052602452604486fd5b50346101e257806003193601126101e2576020600254604051908152f35b50346101e25760203660031901126101e2577f238de794810a8ff04894bb9abe0af231ec5b54436ca94df9089743d6b1e0a0e060206004356111ac612e01565b80600855604051908152a180f35b50346101e2576111c936612b8a565b838552600360205260408520600201549192916001600160a01b031633036113cf57838552600360205260ff60196040872001541660098110156113bb57600203611393578115801561138b575b61137c5783855260036020526040852042600d820155826013820155601481016001600160401b03831161136857611259836112538354612bc0565b83612cd9565b86601f84116001146112dc576112cb9284926112b0847fde2890ca9b2dd6fc2833626b6876e80a1b02a005f86e928d4a0ced973654b8539998976019958d916112d1575b508160011b915f199060031b1c19161790565b90555b01805460ff1916600317905560405193849384612d76565b0390a280f35b90508901355f61129d565b8188526020882090601f198516895b8181106113505750926019926112cb9592877fde2890ca9b2dd6fc2833626b6876e80a1b02a005f86e928d4a0ced973654b8539a99989610611337575b5050600184811b0190556112b3565b8801355f19600387901b60f8161c191690555f80611328565b9192602060018192868c0135815501940192016112eb565b634e487b7160e01b87526041600452602487fd5b63325de78f60e21b8552600485fd5b508015611217565b6024858581526003602052610b0360ff601960408420015416630d64047360e21b8352612ac0565b634e487b7160e01b86526021600452602486fd5b6314fcceef60e31b85526004849052602485fd5b50346101e2576113f236612b8a565b91906113fc612e34565b838552600360205260408520600401546001600160a01b0316330361161f57838552600360205260ff60196040872001541660098110156113bb576003036113935781158015611617575b61137c5783855260036020526040852042600e820155826015820155601681016001600160401b03851161136857611483856112538354612bc0565b8687601f87116001146115865761152e9361155e936114de89807fcadc9ff6e36327073a546b8c3c5f6f0d72c9798ca5a05b2847b7524b3c7780ea9b9a9996611545969161157b57508160011b915f199060031b1c19161790565b90555b60198101600560ff1982541617905560068101908a825492816007840191611523835461151e6127106115166007548b612c98565b048099612cbf565b612ccc565b998a96600554612ccc565b6005555555600201546001600160a01b0316612eca565b6040519485948552606060208601526060850191612d28565b9060408301520390a260015f51602061305f5f395f51905f525580f35b90508601355f61129d565b508188526020882090601f198716895b8181106115ff57509361155e9388979693611545937fcadc9ff6e36327073a546b8c3c5f6f0d72c9798ca5a05b2847b7524b3c7780ea9a61152e98106115e6575b5050600188811b0190556114e1565b8501355f1960038b901b60f8161c191690555f806115d7565b9192602060018192868a013581550194019201611596565b508215611447565b629c085360e31b85526004849052602485fd5b50346101e25761164136612b8a565b61164c939293612e34565b828552600360205260ff60196040872001541660098110156113bb576001036118f957831580156118f1575b61137c57828552600360205260408520600b8101548042116118df575060018060a01b03865416906001810191602083546024604051809481936331a9108f60e11b835260048301525afa9081156118d45788916118a5575b50336001600160a01b0390911603611891576004810180546001600160a01b0319163317905542600c82015560118101869055601281016001600160401b03841161187d579081611728856112538b969554612bc0565b8484601f821160011461180e578160199493926117589288916112d157508160011b915f199060031b1c19161790565b90555b01805460ff19166002179055815490546001600160a01b039190911690813b15610aa657829160248392604051948593849263576cc0f760e01b845260048401525af18015610aaa576117f5575b50507fae28cab74979f89db02cf8d9ded7bac20143e1b5e950dddf849db36520c3ac81916117de604051928392339784612d76565b0390a360015f51602061305f5f395f51905f525580f35b816117ff91612b21565b61180a57845f6117a9565b8480fd5b8286526020862091959493929190601f198716865b81811061185f575096601995969710611846575b5050600186811b01905561175b565b8801355f19600389901b60f8161c191690555f80611837565b8a83013584558998508d975060019093019260209283019201611823565b634e487b7160e01b88526041600452602488fd5b6312eead5b60e01b87526004859052602487fd5b6118c7915060203d6020116118cd575b6118bf8183612b21565b810190612d57565b5f6116d1565b503d6118b5565b6040513d8a823e3d90fd5b632b19836360e21b8752600452602486fd5b508015611678565b6024858481526003602052610b0360ff601960408420015416630d64047360e21b8352612ac0565b50346101e257806003193601126101e2575f516020612fff5f395f51905f52546040516001600160a01b039091168152602090f35b50346101e257806003193601126101e25761196f612e01565b611977612f20565b600160ff195f51602061303f5f395f51905f525416175f51602061303f5f395f51905f52557f62e78cea01bee320cd4e420270b5ea74000d11b0c9f74754ebdbfc544b05a2586020604051338152a180f35b50346101e25760203660031901126101e2575060206127106119ef600954600435612c98565b04604051908152f35b50346101e257806003193601126101e257611a11612e01565b5f516020612fff5f395f51905f5280546001600160a01b0319811690915581906001600160a01b03167f8be0079c531659141344cd1fd0a4f28419497f9722a3daafe3b4186f6b6457e08280a380f35b50346101e257806003193601126101e2576020600854604051908152f35b50611a8936612b8a565b909392611a94612e34565b82158015611d7a575b611d6b57808452600360205260408420601981019160ff8354166009811015611d5757600281141580611d4c575b611d3657506004820180549093906001600160a01b03163303611d2257612710611afc600685015460095490612c98565b04803403611d0c57506005830180546001600160a01b0319163317905542600f84015534601084015560178301869055601883016001600160401b03861161187d57611b4c866112538354612bc0565b87601f8711600114611ca15791889991611b818880611c419660209c9d91611c9657508160011b915f199060031b1c19161790565b90555b600460ff19825416179055604051348152888882015260606040820152837f936701ca38767e5ea2032ca17a298e12b765300ce4cef1191b734b20ad40d83b339280611bd4606082018c88612d28565b0390a36001549454600290940154604051630f3231fb60e31b815260048101949094526001600160a01b0394851660248501528416604484015233606484015234608484015260a483019790975260e060c4830152909586949390921692849283929160e4840191612d28565b039134905af18015610aaa57611c67575b5060015f51602061305f5f395f51905f525580f35b611c889060203d602011611c8f575b611c808183612b21565b810190612d48565b505f611c52565b503d611c76565b90508501355f61129d565b8189526020892090601f1988168a5b818110611cf45750916020999a9b939189611c41969410611cdb575b5050600188811b019055611b84565b8401355f1960038b901b60f8161c191690555f80611ccc565b91926020600181928f87013581550194019201611cb0565b630d35e92160e01b885260045234602452604487fd5b6312eead5b60e01b87526004829052602487fd5b86610b03602492630d64047360e21b8352612ac0565b506003811415611acb565b634e487b7160e01b87526021600452602487fd5b63325de78f60e21b8452600484fd5b508115611a9d565b50346101e25760203660031901126101e25760206127106119ef600854600435612c98565b50346101e257806003193601126101e257602060ff5f51602061303f5f395f51905f5254166040519015158152f35b50346101e25760203660031901126101e25760406020916004358152600483522054604051908152f35b50346101e257806003193601126101e2576020600554604051908152f35b50346101e257806003193601126101e257546040516001600160a01b039091168152602090f35b50346101e257806003193601126101e2577f00000000000000000000000000000000000000000000000000000000000000006001600160a01b03163003611e9d5760206040515f51602061301f5f395f51905f528152f35b63703e46dd60e11b8152600490fd5b50346101e257806003193601126101e2576020600654604051908152f35b5060403660031901126101e257611edf612adb565b90602435916001600160401b03831161094e573660238401121561094e578260040135611f0b81612b42565b93611f196040519586612b21565b8185523660248383010111610ff05781849260246020930183880137850101526001600160a01b037f0000000000000000000000000000000000000000000000000000000000000000163081149081156120b5575b506120a657611f7b612e01565b6040516352d1902d60e01b8152926001600160a01b0382169190602085600481865afa80958596612072575b50611fc057634c9c8ce360e01b84526004839052602484fd5b9091845f51602061301f5f395f51905f5281036120605750823b1561204e575f51602061301f5f395f51905f5280546001600160a01b031916821790557fbc7cd75a20ee27fd9adebab32041f755214dbc6bffa90cc0225b39da2e5c2d3b8480a28051156120355761203191612f72565b5080f35b50503461203f5780f35b63b398979f60e01b8152600490fd5b634c9c8ce360e01b8452600452602483fd5b632a87526960e21b8552600452602484fd5b9095506020813d60201161209e575b8161208e60209383612b21565b8101031261180a5751945f611fa7565b3d9150612081565b63703e46dd60e11b8252600482fd5b5f51602061301f5f395f51905f52546001600160a01b0316141590505f611f6e565b50346101e257806003193601126101e2576120f0612e01565b5f51602061303f5f395f51905f525460ff8116156121485760ff19165f51602061303f5f395f51905f52557f5db9ee0a495bf2e6ff9c91a7834c1ba4fdd244a5e8aa4e537bd38aeae4b073aa6020604051338152a180f35b638dfc202b60e01b8252600482fd5b50346101e25760403660031901126101e25760043560243580151590818103610ff0576001546001600160a01b0316330361234d57612194612e34565b828452600360205260ff601960408620015416600981101561233957600403612311577f8b73054ea83940ab16e14db54b1ef060f1114af433ae56d5aebcd83b7d14379191602091848652600383526040862090600682018054600784019289845494816010880191818354975555555f146122aa5760198401805460ff191660061790559180838382106122925750508161223661224f9361223c93612cbf565b93612ccc565b60048401546001600160a01b0316612eca565b80612272575b5050604051908152a260015f51602061305f5f395f51905f525580f35b60029091015461228b91906001600160a01b0316612eca565b5f80612255565b915091506122a09250612ccc565b61224f879161223c565b9183916122ec6122e36122f793601961230c9801600560ff1982541617905561151e6127106122db6007548a612c98565b048098612cbf565b94600554612ccc565b600555600654612ccc565b600655600201546001600160a01b0316612eca565b6110ef565b6024848481526003602052610b0360ff601960408420015416630d64047360e21b8352612ac0565b634e487b7160e01b85526021600452602485fd5b632a88a3e760e21b8452600484fd5b50346101e25760203660031901126101e257600435808252600360205260408220600201546001600160a01b0316330361248957808252600360205260ff60196040842001541660098110156106d957610ada576123b8612e34565b80825260036020526040822060198101805460ff19166008179055600781018054908490558354600183015485916001600160a01b031690813b15610aa657829160248392604051948593849263576cc0f760e01b845260048401525af18015610aaa57612474575b505060029091015461243c91906001600160a01b0316612eca565b7f411aee90354c51b1b04cd563fcab2617142a9d50da19232d888547c8a1b7fd8a8280a260015f51602061305f5f395f51905f525580f35b8161247e91612b21565b610ff057835f612421565b6314fcceef60e31b8252600452602490fd5b50346108df5760203660031901126108df576004356124b8612e34565b805f52600360205260ff601960405f20015416600981101561262b5760010361260257805f52600360205260405f20600b810154804211156125f0575060198101805460ff19166007179055600181015461251281612e6c565b612592575b50602061257d6110ef8360067ff0e175b5f1f999daf7d77d36893fe318fa35043eb3b1f362befc98799ed77efc950190612572825492896007840181815493555561151e61271061256a60075487612c98565b048095612cbf565b938492600554612ccc565b600555600201546001600160a01b0316612eca565b5f546001600160a01b031690813b156108df575f9160248392604051948593849263576cc0f760e01b845260048401525af180156125e55715612517576125dc9193505f90612b21565b5f916020612517565b6040513d5f823e3d90fd5b63585826d160e01b5f5260045260245ffd5b5f52600360205261262660ff601960405f20015416630d64047360e21b5f52612ac0565b60245ffd5b634e487b7160e01b5f52602160045260245ffd5b346108df575f3660031901126108df576020600754604051908152f35b346108df5760203660031901126108df57600435612678612e01565b6107d081116126b2576020817f29b5411aa2e924fb9cbf4b1bd9bd4f0baa362df5080b06f0b79a1411554fad7192600955604051908152a1005b63cd4e616760e01b5f5260045ffd5b346108df575f3660031901126108df576020600954604051908152f35b346108df5760203660031901126108df57610320816126fd5f93612af1565b8281528260208201528260408201528260608201528260808201528260a08201528260c08201528260e08201528261010082015282610120820152826101408201528261016082015282610180820152826101a0820152826101c0820152826101e082015282610200820152826102208201526060610240820152826102608201526060610280820152826102a082015260606102c0820152826102e0820152606061030082015201526004355f52600360205260405f2060ff6019604051926127c684612af1565b805484526001810154602085015260028101546001600160a01b03908116604086015260038201548116606086015260048201548116608086015260058201541660a0850152600681015460c0850152600781015460e085015260088101546101008501526009810154610120850152600a810154610140850152600b810154610160850152600c810154610180850152600d8101546101a0850152600e8101546101c0850152600f8101546101e08501526010810154610200850152601181015461022085015261289a60128201612bf8565b61024085015260138101546102608501526128b760148201612bf8565b61028085015260158101546102a08501526128d460168201612bf8565b6102c085015260178101546102e08501526128f160188201612bf8565b610300850152015416600981101561262b57610320820152604051809160208252805160208301526020810151604083015260018060a01b03604082015116606083015260018060a01b03606082015116608083015260018060a01b0360808201511660a083015260018060a01b0360a08201511660c083015260c081015160e083015260e08101516101008301526101008101516101208301526101208101516101408301526101408101516101608301526101608101516101808301526101808101516101a08301526101a08101516101c08301526101c08101516101e08301526101e081015161020083015261020081015161022083015261022081015161024083015261103d610320612a8e612a6c612a48612a246102408701516103406102608a0152610360890190612a9c565b610260870151610280890152610280870151601f19898303016102a08a0152612a9c565b6102a08601516102c08801526102c0860151601f19888303016102e0890152612a9c565b6102e0850151610300870152610300850151601f198783030184880152612a9c565b920151610340840190612ace565b805180835260209291819084018484015e5f828201840152601f01601f1916010190565b600981101561262b57600452565b90600982101561262b5752565b600435906001600160a01b03821682036108df57565b61034081019081106001600160401b03821117612b0d57604052565b634e487b7160e01b5f52604160045260245ffd5b90601f801991011681019081106001600160401b03821117612b0d57604052565b6001600160401b038111612b0d57601f01601f191660200190565b9181601f840112156108df578235916001600160401b0383116108df57602083818601950101116108df57565b60606003198201126108df576004359160243591604435906001600160401b0382116108df57612bbc91600401612b5d565b9091565b90600182811c92168015612bee575b6020831014612bda57565b634e487b7160e01b5f52602260045260245ffd5b91607f1691612bcf565b9060405191825f825492612c0b84612bc0565b8084529360018116908115612c765750600114612c32575b50612c3092500383612b21565b565b90505f9291925260205f20905f915b818310612c5a575050906020612c30928201015f612c23565b6020919350806001915483858901015201910190918492612c41565b905060209250612c3094915060ff191682840152151560051b8201015f612c23565b81810292918115918404141715612cab57565b634e487b7160e01b5f52601160045260245ffd5b91908203918211612cab57565b91908201809211612cab57565b601f8211612ce657505050565b5f5260205f20906020601f840160051c83019310612d1e575b601f0160051c01905b818110612d13575050565b5f8155600101612d08565b9091508190612cff565b908060209392818452848401375f828201840152601f01601f1916010190565b908160209103126108df575190565b908160209103126108df57516001600160a01b03811681036108df5790565b604090612d8d949281528160208201520191612d28565b90565b6001600160a01b03168015612dee575f516020612fff5f395f51905f5280546001600160a01b0319811683179091556001600160a01b03167f8be0079c531659141344cd1fd0a4f28419497f9722a3daafe3b4186f6b6457e05f80a3565b631e4fbdf760e01b5f525f60045260245ffd5b5f516020612fff5f395f51905f52546001600160a01b03163303612e2157565b63118cdaa760e01b5f523360045260245ffd5b60025f51602061305f5f395f51905f525414612e5d5760025f51602061305f5f395f51905f5255565b633ee5aeb560e01b5f5260045ffd5b5f546040516331a9108f60e11b81526004810192909252602090829060249082906001600160a01b03165afa9081612ead575b50612ea8575f90565b600190565b612ec59060203d6020116118cd576118bf8183612b21565b612e9f565b5f918291829182916001600160a01b03165af13d15612f1b573d612eed81612b42565b90612efb6040519283612b21565b81525f60203d92013e5b15612f0c57565b6312171d8360e31b5f5260045ffd5b612f05565b60ff5f51602061303f5f395f51905f525416612f3857565b63d93c066560e01b5f5260045ffd5b60ff5f51602061307f5f395f51905f525460401c1615612f6357565b631afcd79f60e31b5f5260045ffd5b905f8091602081519101845af48080612feb575b15612fa65750506040513d81523d5f602083013e60203d82010160405290565b15612fcb57639996b31560e01b5f9081526001600160a01b0391909116600452602490fd5b3d15612fdc576040513d5f823e3d90fd5b63d6bda27560e01b5f5260045ffd5b503d151580612f865750813b1515612f8656fe9016d09d72d40fdae2fd8ceac6b6234c7706214fd39c1cd1e609a0528c199300360894a13ba1a3210667c828492db98dca3e2076cc3735a920a3ca505d382bbccd5ed15c6e187e77e9aee88184c21f4f2182ab5827cb3b7e07fbedcd63f033009b779b17422d0df92223018b32b4d1fa46e071723d6817e2486d003becc55f00f0c57e16840df040f15088dc2f81fe391c3923bec73e23a9662efc9c229c6a00a26469706673582212208ec8f88c69f51fc4bc2101fd37137eed5b192e681f84ac60a10b070caf5a58e164736f6c634300081c0033f0c57e16840df040f15088dc2f81fe391c3923bec73e23a9662efc9c229c6a00",
  "linkReferences": {},
  "deployedLinkReferences": {}
}