{
  "_format": "hh-sol-artifact-1",
  "contractName": "TrustToken",
  "sourceName": "contracts/TrustToken.sol",
  "abi": [
    {
      "inputs": [],
      "stateMutability": "nonpayable",
      "type": "constructor"
    },
    {
      "inputs": [
        {
          "internalType": "address",
          "name": "target",
          "type": "address"
        }
      ],
      "name": "AddressEmptyCode",
      "type": "error"
    },
    {
      "inputs": [
        {
          "internalType": "address",
          "name": "implementation",
          "type": "address"
        }
      ],
      "name": "ERC1967InvalidImplementation",
      "type": "error"
    },
    {
      "inputs": [],
      "name": "ERC1967NonPayable",
      "type": "error"
    },
    {
      "inputs": [
        {
          "internalType": "address",
          "name": "spender",
          "type": "address"
        },
        {
          "internalType": "uint256",
          "name": "allowance",
          "type": "uint256"
        },
        {
          "internalType": "uint256",
          "name": "needed",
          "type": "uint256"
        }
      ],
      "name": "ERC20InsufficientAllowance",
      "type": "error"
    },
    {
      "inputs": [
        {
          "internalType": "address",
          "name": "sender",
          "type": "address"
        },
        {
          "internalType": "uint256",
          "name": "balance",
          "type": "uint256"
        },
        {
          "internalType": "uint256",
          "name": "needed",
          "type": "uint256"
        }
      ],
      "name": "ERC20InsufficientBalance",
      "type": "error"
    },
    {
      "inputs": [
        {
          "internalType": "address",
          "name": "approver",
          "type": "address"
        }
      ],
      "name": "ERC20InvalidApprover",
      "type": "error"
    },
    {
      "inputs": [
        {
          "internalType": "address",
          "name": "receiver",
          "type": "address"
        }
      ],
      "name": "ERC20InvalidReceiver",
      "type": "error"
    },
    {
      "inputs": [
        {
          "internalType": "address",
          "name": "sender",
          "type": "address"
        }
      ],
      "name": "ERC20InvalidSender",
      "type": "error"
    },
    {
      "inputs": [
        {
          "internalType": "address",
          "name": "spender",
          "type": "address"
        }
      ],
      "name": "ERC20InvalidSpender",
      "type": "error"
    },
    {
      "inputs": [
        {
          "internalType": "uint256",
          "name": "requested",
          "type": "uint256"
        },
        {
          "internalType": "uint256",
          "name": "remaining",
          "type": "uint256"
        }
      ],
      "name": "ExceedsMaxSupply",
      "type": "error"
    },
    {
      "inputs": [],
      "name": "FailedCall",
      "type": "error"
    },
    {
      "inputs": [],
      "name": "InvalidInitialization",
      "type": "error"
    },
    {
      "inputs": [],
      "name": "NotInitializing",
      "type": "error"
    },
    {
      "inputs": [
        {
          "internalType": "address",
          "name": "owner",
          "type": "address"
        }
      ],
      "name": "OwnableInvalidOwner",
      "type": "error"
    },
    {
      "inputs": [
        {
          "internalType": "address",
          "name": "account",
          "type": "address"
        }
      ],
      "name": "OwnableUnauthorizedAccount",
      "type": "error"
    },
    {
      "inputs": [],
      "name": "UUPSUnauthorizedCallContext",
      "type": "error"
    },
    {
      "inputs": [
        {
          "internalType": "bytes32",
          "name": "slot",
          "type": "bytes32"
        }
      ],
      "name": "UUPSUnsupportedProxiableUUID",
      "type": "error"
    },
    {
      "anonymous": false,
      "inputs": [
        {
          "indexed": true,
          "internalType": "address",
          "name": "owner",
          "type": "address"
        },
        {
          "indexed": true,
          "internalType": "address",
          "name": "spender",
          "type": "address"
        },
        {
          "indexed": false,
          "internalType": "uint256",
          "name": "value",
          "type": "uint256"
        }
      ],
      "name": "Approval",
      "type": "event"
    },
    {
      "anonymous": false,
      "inputs": [
        {
          "indexed": false,
          "internalType": "uint64",
          "name": "version",
          "type": "uint64"
        }
      ],
      "name": "Initialized",
      "type": "event"
    },
    {
      "anonymous": false,
      "inputs": [
        {
          "indexed": true,
          "internalType": "address",
          "name": "previousOwner",
          "type": "address"
        },
        {
          "indexed": true,
          "internalType": "address",
          "name": "newOwner",
          "type": "address"
        }
      ],
      "name": "OwnershipTransferred",
      "type": "event"
    },
    {
      "anonymous": false,
      "inputs": [
        {
          "indexed": true,
          "internalType": "address",
          "name": "from",
          "type": "address"
        },
        {
          "indexed": true,
          "internalType": "address",
          "name": "to",
          "type": "address"
        },
        {
          "indexed": false,
          "internalType": "uint256",
          "name": "value",
          "type": "uint256"
        }
      ],
      "name": "Transfer",
      "type": "event"
    },
    {
      "anonymous": false,
      "inputs": [
        {
          "indexed": true,
          "internalType": "address",
          "name": "implementation",
          "type": "address"
        }
      ],
      "name": "Upgraded",
      "type": "event"
    },
    {
      "inputs": [],
      "name": "MAX_SUPPLY",
      "outputs": [
        {
          "internalType": "uint256",
          "name": "",
          "type": "uint256"
        }
      ],
      "stateMutability": "view",
      "type": "function"
    },
    {
      "inputs": [],
      "name": "UPGRADE_INTERFACE_VERSION",
      "outputs": [
        {
          "internalType": "string",
          "name": "",
          "type": "string"
        }
      ],
      "stateMutability": "view",
      "type": "function"
    },
    {
      "inputs": [
        {
          "internalType": "address",
          "name": "owner",
          "type": "address"
        },
        {
          "internalType": "address",
          "name": "spender",
          "type": "address"
        }
      ],
      "name": "allowance",
      "outputs": [
        {
          "internalType": "uint256",
          "name": "",
          "type": "uint256"
        }
      ],
      "stateMutability": "view",
      "type": "function"
    },
    {
      "inputs": [
        {
          "internalType": "address",
          "name": "spender",
          "type": "address"
        },
        {
          "internalType": "uint256",
          "name": "value",
          "type": "uint256"
        }
      ],
      "name": "approve",
      "outputs": [
        {
          "internalType": "bool",
          "name": "",
          "type": "bool"
        }
      ],
      "stateMutability": "nonpayable",
      "type": "function"
    },
    {
      "inputs": [
        {
          "internalType": "address",
          "name": "account",
          "type": "address"
        }
      ],
      "name": "balanceOf",
      "outputs": [
        {
          "internalType": "uint256",
          "name": "",
          "type": "uint256"
        }
      ],
      "stateMutability": "view",
      "type": "function"
    },
    {
      "inputs": [],
      "name": "decimals",
      "outputs": [
        {
          "internalType": "uint8",
          "name": "",
          "type": "uint8"
        }
      ],
      "stateMutability": "view",
      "type": "function"
    },
    {
      "inputs": [
        {
          "internalType": "address",
          "name": "initialOwner",
          "type": "address"
        }
      ],
      "name": "initialize",
      "outputs": [],
      "stateMutability": "nonpayable",
      "type": "function"
    },
    {
      "inputs": [
        {
          "internalType": "address",
          "name": "to",
          "type": "address"
        },
        {
          "internalType": "uint256",
          "name": "amount",
          "type": "uint256"
        }
      ],
      "name": "mint",
      "outputs": [],
      "stateMutability": "nonpayable",
      "type": "function"
    },
    {
      "inputs": [],
      "name": "name",
      "outputs": [
        {
          "internalType": "string",
          "name": "",
          "type": "string"
        }
      ],
      "stateMutability": "view",
      "type": "function"
    },
    {
      "inputs": [],
      "name": "owner",
      "outputs": [
        {
          "internalType": "address",
          "name": "",
          "type": "address"
        }
      ],
      "stateMutability": "view",
      "type": "function"
    },
    {
      "inputs": [],
      "name": "proxiableUUID",
      "outputs": [
        {
          "internalType": "bytes32",
          "name": "",
          "type": "bytes32"
        }
      ],
      "stateMutability": "view",
      "type": "function"
    },
    {
      "inputs": [],
      "name": "renounceOwnership",
      "outputs": [],
      "stateMutability": "nonpayable",
      "type": "function"
    },
    {
      "inputs": [],
      "name": "symbol",
      "outputs": [
        {
          "internalType": "string",
          "name": "",
          "type": "string"
        }
      ],
      "stateMutability": "view",
      "type": "function"
    },
    {
      "inputs": [],
      "name": "totalSupply",
      "outputs": [
        {
          "internalType": "uint256",
          "name": "",
          "type": "uint256"
        }
      ],
      "stateMutability": "view",
      "type": "function"
    },
    {
      "inputs": [
        {
          "internalType": "address",
          "name": "to",
          "type": "address"
        },
        {
          "internalType": "uint256",
          "name": "value",
          "type": "uint256"
        }
      ],
      "name": "transfer",
      "outputs": [
        {
          "internalType": "bool",
          "name": "",
          "type": "bool"
        }
      ],
      "stateMutability": "nonpayable",
      "type": "function"
    },
    {
      "inputs": [
        {
          "internalType": "address",
          "name": "from",
          "type": "address"
        },
        {
          "internalType": "address",
          "name": "to",
          "type": "address"
        },
        {
          "internalType": "uint256",
          "name": "value",
          "type": "uint256"
        }
      ],
      "name": "transferFrom",
      "outputs": [
        {
          "internalType": "bool",
          "name": "",
          "type": "bool"
        }
      ],
      "stateMutability": "nonpayable",
      "type": "function"
    },
    {
      "inputs": [
        {
          "internalType": "address",
          "name": "newOwner",
          "type": "address"
        }
      ],
      "name": "transferOwnership",
      "outputs": [],
      "stateMutability": "nonpayable",
      "type": "function"
    },
    {
      "inputs": [
        {
          "internalType": "address",
          "name": "newImplementation",
          "type": "address"
        },
        {
          "internalType": "bytes",
          "name": "data",
          "type": "bytes"
        }
      ],
      "name": "upgradeToAndCall",
      "outputs": [],
      "stateMutability": "payable",
      "type": "function"
    }
  ],
  "bytecode": "0x60a080604052346100c257306080525f5160206113115f395f51905f525460ff8160401c166100b3576002600160401b03196001600160401b03821601610060575b60405161124a90816100c7823960805181818161082e015261090a0152f35b6001600160401b0319166001600160401b039081175f5160206113115f395f51905f525581527fc7f505b2f371ae2175ee4913f4499e1f2633a7b5936321eed1cdaeb6115181d290602090a15f80610041565b63f92ee8a960e01b5f5260045ffd5b5f80fdfe60806040526004361015610011575f80fd5b5f3560e01c806306fdde0314610d63578063095ea7b314610ce457806318160ddd14610cbb57806323b872dd14610be3578063313ce56714610bc857806332cb6b0c14610ba357806340c10f1914610a865780634f1ef2861461088257806352d1902d1461081c57806370a08231146107d8578063715018a6146107715780638da5cb5b1461073d57806395d89b411461064f578063a9059cbb1461061e578063ad3cb1cc146105db578063c4d66de814610155578063dd62ed3e1461010e5763f2fde38b146100df575f80fd5b3461010a57602036600319011261010a576101086100fb610e4a565b61010361104a565b610f08565b005b5f80fd5b3461010a57604036600319011261010a57610127610e4a565b610138610132610e60565b91610ed0565b9060018060a01b03165f52602052602060405f2054604051908152f35b3461010a57602036600319011261010a5761016e610e4a565b5f5160206111f55f395f51905f525460ff8160401c16159067ffffffffffffffff8116801590816105d3575b60011490816105c9575b1590816105c0575b506105b15767ffffffffffffffff1981166001175f5160206111f55f395f51905f525581610585575b506040908151926101e68385610e76565b600b84526a2a393ab9ba102a37b5b2b760a91b602085015282519361020b8486610e76565b600585526415149554d560da1b602086015261022561107d565b61022d61107d565b80519067ffffffffffffffff821161046e5781906102585f5160206111355f395f51905f5254610e98565b601f811161050b575b50602090601f831160011461048d575f92610482575b50508160011b915f199060031b1c1916175f5160206111355f395f51905f52555b835167ffffffffffffffff811161046e576102c05f5160206111755f395f51905f5254610e98565b601f81116103ff575b506020601f821160011461037e5781906103179495965f92610373575b50508160011b915f199060031b1c1916175f5160206111755f395f51905f52555b61030f61107d565b61010361107d565b61031d57005b60207fc7f505b2f371ae2175ee4913f4499e1f2633a7b5936321eed1cdaeb6115181d29168ff0000000000000000195f5160206111f55f395f51905f5254165f5160206111f55f395f51905f52555160018152a1005b0151905086806102e6565b601f198216955f5160206111755f395f51905f525f52815f20965f5b8181106103e7575091610317959697918460019594106103cf575b505050811b015f5160206111755f395f51905f5255610307565b01515f1960f88460031b161c191690558680806103b5565b8383015189556001909801976020938401930161039a565b5f5160206111755f395f51905f525f527f46a2803e59a4de4e7a4c574b1243f25977ac4c77d5a1a4a609b5394cebb4a2aa601f830160051c81019160208410610464575b601f0160051c01905b81811061045957506102c9565b5f815560010161044c565b9091508190610443565b634e487b7160e01b5f52604160045260245ffd5b015190508680610277565b5f5160206111355f395f51905f525f9081528281209350601f198516905b8181106104f357509084600195949392106104db575b505050811b015f5160206111355f395f51905f5255610298565b01515f1960f88460031b161c191690558680806104c1565b929360206001819287860151815501950193016104ab565b5f5160206111355f395f51905f525f529091507f2ae08a8e29253f69ac5d979a101956ab8f8d9d7ded63fa7a83b16fc47648eab0601f840160051c8101916020851061057b575b90601f859493920160051c01905b81811061056d5750610261565b5f8155849350600101610560565b9091508190610552565b68ffffffffffffffffff191668010000000000000001175f5160206111f55f395f51905f5255826101d5565b63f92ee8a960e01b5f5260045ffd5b905015846101ac565b303b1591506101a4565b83915061019a565b3461010a575f36600319011261010a5761061a6040516105fc604082610e76565b60058152640352e302e360dc1b602082015260405191829182610e20565b0390f35b3461010a57604036600319011261010a5761064461063a610e4a565b6024359033610f79565b602060405160018152f35b3461010a575f36600319011261010a576040515f5f5160206111755f395f51905f525461067b81610e98565b808452906001811690811561071957506001146106af575b61061a836106a381850382610e76565b60405191829182610e20565b5f5160206111755f395f51905f525f9081527f46a2803e59a4de4e7a4c574b1243f25977ac4c77d5a1a4a609b5394cebb4a2aa939250905b8082106106ff575090915081016020016106a3610693565b9192600181602092548385880101520191019092916106e7565b60ff191660208086019190915291151560051b840190910191506106a39050610693565b3461010a575f36600319011261010a575f5160206111955f395f51905f52546040516001600160a01b039091168152602090f35b3461010a575f36600319011261010a5761078961104a565b5f5160206111955f395f51905f5280546001600160a01b031981169091555f906001600160a01b03167f8be0079c531659141344cd1fd0a4f28419497f9722a3daafe3b4186f6b6457e08280a3005b3461010a57602036600319011261010a576001600160a01b036107f9610e4a565b165f525f5160206111555f395f51905f52602052602060405f2054604051908152f35b3461010a575f36600319011261010a577f00000000000000000000000000000000000000000000000000000000000000006001600160a01b031630036108735760206040515f5160206111d55f395f51905f528152f35b63703e46dd60e11b5f5260045ffd5b604036600319011261010a57610896610e4a565b6024359067ffffffffffffffff821161010a573660238301121561010a57816004013567ffffffffffffffff811161046e57604051926108e0601f8301601f191660200185610e76565b818452366024838301011161010a57815f9260246020930183870137840101526001600160a01b037f000000000000000000000000000000000000000000000000000000000000000016308114908115610a64575b506108735761094261104a565b6040516352d1902d60e01b81526001600160a01b0382169290602081600481875afa5f9181610a30575b506109845783634c9c8ce360e01b5f5260045260245ffd5b805f5160206111d55f395f51905f52859203610a1e5750823b15610a0c575f5160206111d55f395f51905f5280546001600160a01b031916821790557fbc7cd75a20ee27fd9adebab32041f755214dbc6bffa90cc0225b39da2e5c2d3b5f80a28051156109f457610108916110a8565b5050346109fd57005b63b398979f60e01b5f5260045ffd5b634c9c8ce360e01b5f5260045260245ffd5b632a87526960e21b5f5260045260245ffd5b9091506020813d602011610a5c575b81610a4c60209383610e76565b8101031261010a5751908561096c565b3d9150610a3f565b5f5160206111d55f395f51905f52546001600160a01b03161415905083610935565b3461010a57604036600319011261010a57610a9f610e4a565b60243590610aab61104a565b5f5160206111b55f395f51905f52546a52b7d2dcc80cd2e4000000036a52b7d2dcc80cd2e40000008111610b6657808311610b8d57506001600160a01b0316908115610b7a575f5160206111b55f395f51905f525490808201809211610b665760207fddf252ad1be2c89b69c2b068fc378daa952ba7f163c4a11628f55a4df523b3ef915f935f5160206111b55f395f51905f52558484525f5160206111555f395f51905f52825260408420818154019055604051908152a3005b634e487b7160e01b5f52601160045260245ffd5b63ec442f0560e01b5f525f60045260245ffd5b8263adc3cee560e01b5f5260045260245260445ffd5b3461010a575f36600319011261010a5760206040516a52b7d2dcc80cd2e40000008152f35b3461010a575f36600319011261010a57602060405160128152f35b3461010a57606036600319011261010a57610bfc610e4a565b610c04610e60565b60443590610c1183610ed0565b335f9081526020919091526040902054925f198410610c35575b6106449350610f79565b828410610ca0576001600160a01b03811615610c8d573315610c7a5761064493610c5e82610ed0565b60018060a01b0333165f526020528360405f2091039055610c2b565b634a1406b160e11b5f525f60045260245ffd5b63e602df0560e01b5f525f60045260245ffd5b8284637dc7a0d960e11b5f523360045260245260445260645ffd5b3461010a575f36600319011261010a5760205f5160206111b55f395f51905f5254604051908152f35b3461010a57604036600319011261010a57610cfd610e4a565b602435903315610c8d576001600160a01b0316908115610c7a57610d2033610ed0565b825f526020528060405f20556040519081527f8c5be1e5ebec7d5bd14f71427d1e84f3dd0314c0f7b2291e5b200ac8c7c3b92560203392a3602060405160018152f35b3461010a575f36600319011261010a576040515f5f5160206111355f395f51905f5254610d8f81610e98565b80845290600181169081156107195750600114610db65761061a836106a381850382610e76565b5f5160206111355f395f51905f525f9081527f2ae08a8e29253f69ac5d979a101956ab8f8d9d7ded63fa7a83b16fc47648eab0939250905b808210610e06575090915081016020016106a3610693565b919260018160209254838588010152019101909291610dee565b602060409281835280519182918282860152018484015e5f828201840152601f01601f1916010190565b600435906001600160a01b038216820361010a57565b602435906001600160a01b038216820361010a57565b90601f8019910116810190811067ffffffffffffffff82111761046e57604052565b90600182811c92168015610ec6575b6020831014610eb257565b634e487b7160e01b5f52602260045260245ffd5b91607f1691610ea7565b6001600160a01b03165f9081527f52c63247e1f47db19d5ce0460030c497f067ca4cebf71ba98eeadabe20bace016020526040902090565b6001600160a01b03168015610f66575f5160206111955f395f51905f5280546001600160a01b0319811683179091556001600160a01b03167f8be0079c531659141344cd1fd0a4f28419497f9722a3daafe3b4186f6b6457e05f80a3565b631e4fbdf760e01b5f525f60045260245ffd5b6001600160a01b0316908115611037576001600160a01b0316918215610b7a57815f525f5160206111555f395f51905f5260205260405f205481811061101e57817fddf252ad1be2c89b69c2b068fc378daa952ba7f163c4a11628f55a4df523b3ef92602092855f525f5160206111555f395f51905f5284520360405f2055845f525f5160206111555f395f51905f52825260405f20818154019055604051908152a3565b8263391434e360e21b5f5260045260245260445260645ffd5b634b637e8f60e11b5f525f60045260245ffd5b5f5160206111955f395f51905f52546001600160a01b0316330361106a57565b63118cdaa760e01b5f523360045260245ffd5b60ff5f5160206111f55f395f51905f525460401c161561109957565b631afcd79f60e31b5f5260045ffd5b905f8091602081519101845af48080611121575b156110dc5750506040513d81523d5f602083013e60203d82010160405290565b1561110157639996b31560e01b5f9081526001600160a01b0391909116600452602490fd5b3d15611112576040513d5f823e3d90fd5b63d6bda27560e01b5f5260045ffd5b503d1515806110bc5750813b15156110bc56fe52c63247e1f47db19d5ce0460030c497f067ca4cebf71ba98eeadabe20bace0352c63247e1f47db19d5ce0460030c497f067ca4cebf71ba98eeadabe20bace0052c63247e1f47db19d5ce0460030c497f067ca4cebf71ba98eeadabe20bace049016d09d72d40fdae2fd8ceac6b6234c7706214fd39c1cd1e609a0528c19930052c63247e1f47db19d5ce0460030c497f067ca4cebf71ba98eeadabe20bace02360894a13ba1a3210667c828492db98dca3e2076cc3735a920a3ca505d382bbcf0c57e16840df040f15088dc2f81fe391c3923bec73e23a9662efc9c229c6a00a2646970667358221220d97704c1145d1f9a1391c8308d1824119dcbcf6a66ac9bd3d932bee0ef5225ac64736f6c634300081c0033f0c57e16840df040f15088dc2f81fe391c3923bec73e23a9662efc9c229c6a00",
  "linkReferences": {},
  "deployedLinkReferences": {}
}